{
	"BCLastone.sol": {
		"FamilyTips": {
			"abi": [
				{
					"inputs": [],
					"stateMutability": "nonpayable",
					"type": "constructor"
				},
				{
					"inputs": [],
					"name": "addFamilyFund",
					"outputs": [],
					"stateMutability": "payable",
					"type": "function"
				},
				{
					"inputs": [
						{
							"internalType": "address payable",
							"name": "walletAddress",
							"type": "address"
						},
						{
							"internalType": "string",
							"name": "name",
							"type": "string"
						}
					],
					"name": "addFamilyMember",
					"outputs": [],
					"stateMutability": "nonpayable",
					"type": "function"
				},
				{
					"inputs": [],
					"name": "distributeFamilyFunds",
					"outputs": [],
					"stateMutability": "nonpayable",
					"type": "function"
				},
				{
					"inputs": [
						{
							"internalType": "address payable",
							"name": "walletAddress",
							"type": "address"
						}
					],
					"name": "removeFamilyMember",
					"outputs": [],
					"stateMutability": "nonpayable",
					"type": "function"
				},
				{
					"inputs": [],
					"name": "viewFamilyFund",
					"outputs": [
						{
							"internalType": "uint256",
							"name": "",
							"type": "uint256"
						}
					],
					"stateMutability": "view",
					"type": "function"
				},
				{
					"inputs": [],
					"name": "viewFamilyMembers",
					"outputs": [
						{
							"components": [
								{
									"internalType": "address payable",
									"name": "walletAddress",
									"type": "address"
								},
								{
									"internalType": "string",
									"name": "name",
									"type": "string"
								}
							],
							"internalType": "struct FamilyTips.FamilyMember[]",
							"name": "",
							"type": "tuple[]"
						}
					],
					"stateMutability": "view",
					"type": "function"
				}
			],
			"devdoc": {
				"kind": "dev",
				"methods": {},
				"version": 1
			},
			"evm": {
				"assembly": "    /* \"BCLastone.sol\":60:2523  contract FamilyTips {... */\n  mstore(0x40, 0x80)\n    /* \"BCLastone.sol\":144:194  constructor(){... */\n  callvalue\n  dup1\n  iszero\n  tag_1\n  jumpi\n  0x00\n  dup1\n  revert\ntag_1:\n  pop\n    /* \"BCLastone.sol\":176:186  msg.sender */\n  caller\n    /* \"BCLastone.sol\":168:173  owner */\n  0x00\n  dup1\n    /* \"BCLastone.sol\":168:186  owner = msg.sender */\n  0x0100\n  exp\n  dup2\n  sload\n  dup2\n  0xffffffffffffffffffffffffffffffffffffffff\n  mul\n  not\n  and\n  swap1\n  dup4\n  0xffffffffffffffffffffffffffffffffffffffff\n  and\n  mul\n  or\n  swap1\n  sstore\n  pop\n    /* \"BCLastone.sol\":60:2523  contract FamilyTips {... */\n  dataSize(sub_0)\n  dup1\n  dataOffset(sub_0)\n  0x00\n  codecopy\n  0x00\n  return\nstop\n\nsub_0: assembly {\n        /* \"BCLastone.sol\":60:2523  contract FamilyTips {... */\n      mstore(0x40, 0x80)\n      jumpi(tag_1, lt(calldatasize, 0x04))\n      shr(0xe0, calldataload(0x00))\n      dup1\n      0x0342da8a\n      eq\n      tag_2\n      jumpi\n      dup1\n      0x1158609e\n      eq\n      tag_3\n      jumpi\n      dup1\n      0x541376c9\n      eq\n      tag_4\n      jumpi\n      dup1\n      0x7a0397fc\n      eq\n      tag_5\n      jumpi\n      dup1\n      0x8ed4d62f\n      eq\n      tag_6\n      jumpi\n      dup1\n      0xca4622fa\n      eq\n      tag_7\n      jumpi\n    tag_1:\n      0x00\n      dup1\n      revert\n        /* \"BCLastone.sol\":1243:1772  function removeFamilyMember(address payable walletAddress) public {... */\n    tag_2:\n      callvalue\n      dup1\n      iszero\n      tag_8\n      jumpi\n      0x00\n      dup1\n      revert\n    tag_8:\n      pop\n      tag_9\n      0x04\n      dup1\n      calldatasize\n      sub\n      dup2\n      add\n      swap1\n      tag_10\n      swap2\n      swap1\n      tag_11\n      jump\t// in\n    tag_10:\n      tag_12\n      jump\t// in\n    tag_9:\n      stop\n        /* \"BCLastone.sol\":1963:2367  function distributeFamilyFunds() public {... */\n    tag_3:\n      callvalue\n      dup1\n      iszero\n      tag_13\n      jumpi\n      0x00\n      dup1\n      revert\n    tag_13:\n      pop\n      tag_14\n      tag_15\n      jump\t// in\n    tag_14:\n      stop\n        /* \"BCLastone.sol\":244:294  function addFamilyFund() payable public {... */\n    tag_4:\n      tag_16\n      tag_17\n      jump\t// in\n    tag_16:\n      stop\n        /* \"BCLastone.sol\":334:432  function viewFamilyFund() public view returns(uint){... */\n    tag_5:\n      callvalue\n      dup1\n      iszero\n      tag_18\n      jumpi\n      0x00\n      dup1\n      revert\n    tag_18:\n      pop\n      tag_19\n      tag_20\n      jump\t// in\n    tag_19:\n      mload(0x40)\n      tag_21\n      swap2\n      swap1\n      tag_22\n      jump\t// in\n    tag_21:\n      mload(0x40)\n      dup1\n      swap2\n      sub\n      swap1\n      return\n        /* \"BCLastone.sol\":1810:1921  function viewFamilyMembers() public view returns(FamilyMember[] memory) {... */\n    tag_6:\n      callvalue\n      dup1\n      iszero\n      tag_23\n      jumpi\n      0x00\n      dup1\n      revert\n    tag_23:\n      pop\n      tag_24\n      tag_25\n      jump\t// in\n    tag_24:\n      mload(0x40)\n      tag_26\n      swap2\n      swap1\n      tag_27\n      jump\t// in\n    tag_26:\n      mload(0x40)\n      dup1\n      swap2\n      sub\n      swap1\n      return\n        /* \"BCLastone.sol\":596:1204  function addFamilyMember(address payable walletAddress, string memory name) public {... */\n    tag_7:\n      callvalue\n      dup1\n      iszero\n      tag_28\n      jumpi\n      0x00\n      dup1\n      revert\n    tag_28:\n      pop\n      tag_29\n      0x04\n      dup1\n      calldatasize\n      sub\n      dup2\n      add\n      swap1\n      tag_30\n      swap2\n      swap1\n      tag_31\n      jump\t// in\n    tag_30:\n      tag_32\n      jump\t// in\n    tag_29:\n      stop\n        /* \"BCLastone.sol\":1243:1772  function removeFamilyMember(address payable walletAddress) public {... */\n    tag_12:\n        /* \"BCLastone.sol\":1347:1348  0 */\n      0x00\n        /* \"BCLastone.sol\":1324:1337  familyMembers */\n      0x01\n        /* \"BCLastone.sol\":1324:1344  familyMembers.length */\n      dup1\n      sload\n      swap1\n      pop\n        /* \"BCLastone.sol\":1324:1348  familyMembers.length > 0 */\n      gt\n        /* \"BCLastone.sol\":1320:1765  if (familyMembers.length > 0) {... */\n      iszero\n      tag_34\n      jumpi\n        /* \"BCLastone.sol\":1370:1376  uint i */\n      0x00\n        /* \"BCLastone.sol\":1365:1754  for (uint i = 0; i < familyMembers.length; i++) {... */\n    tag_35:\n        /* \"BCLastone.sol\":1386:1399  familyMembers */\n      0x01\n        /* \"BCLastone.sol\":1386:1406  familyMembers.length */\n      dup1\n      sload\n      swap1\n      pop\n        /* \"BCLastone.sol\":1382:1383  i */\n      dup2\n        /* \"BCLastone.sol\":1382:1406  i < familyMembers.length */\n      lt\n        /* \"BCLastone.sol\":1365:1754  for (uint i = 0; i < familyMembers.length; i++) {... */\n      iszero\n      tag_36\n      jumpi\n        /* \"BCLastone.sol\":1470:1483  walletAddress */\n      dup2\n        /* \"BCLastone.sol\":1436:1483  familyMembers[i].walletAddress == walletAddress */\n      0xffffffffffffffffffffffffffffffffffffffff\n      and\n        /* \"BCLastone.sol\":1436:1449  familyMembers */\n      0x01\n        /* \"BCLastone.sol\":1450:1451  i */\n      dup3\n        /* \"BCLastone.sol\":1436:1452  familyMembers[i] */\n      dup2\n      sload\n      dup2\n      lt\n      tag_38\n      jumpi\n      tag_39\n      tag_40\n      jump\t// in\n    tag_39:\n    tag_38:\n      swap1\n      0x00\n      mstore\n      keccak256(0x00, 0x20)\n      swap1\n      0x02\n      mul\n      add\n        /* \"BCLastone.sol\":1436:1466  familyMembers[i].walletAddress */\n      0x00\n      add\n      0x00\n      swap1\n      sload\n      swap1\n      0x0100\n      exp\n      swap1\n      div\n      0xffffffffffffffffffffffffffffffffffffffff\n      and\n        /* \"BCLastone.sol\":1436:1483  familyMembers[i].walletAddress == walletAddress */\n      0xffffffffffffffffffffffffffffffffffffffff\n      and\n      sub\n        /* \"BCLastone.sol\":1432:1739  if (familyMembers[i].walletAddress == walletAddress) {... */\n      tag_42\n      jumpi\n        /* \"BCLastone.sol\":1513:1519  uint j */\n      0x00\n        /* \"BCLastone.sol\":1522:1523  i */\n      dup2\n        /* \"BCLastone.sol\":1513:1523  uint j = i */\n      swap1\n      pop\n        /* \"BCLastone.sol\":1508:1650  for (uint j = i; j < familyMembers.length - 1; j++) {... */\n    tag_43:\n        /* \"BCLastone.sol\":1552:1553  1 */\n      0x01\n        /* \"BCLastone.sol\":1529:1542  familyMembers */\n      dup1\n        /* \"BCLastone.sol\":1529:1549  familyMembers.length */\n      dup1\n      sload\n      swap1\n      pop\n        /* \"BCLastone.sol\":1529:1553  familyMembers.length - 1 */\n      tag_46\n      swap2\n      swap1\n      tag_47\n      jump\t// in\n    tag_46:\n        /* \"BCLastone.sol\":1525:1526  j */\n      dup2\n        /* \"BCLastone.sol\":1525:1553  j < familyMembers.length - 1 */\n      lt\n        /* \"BCLastone.sol\":1508:1650  for (uint j = i; j < familyMembers.length - 1; j++) {... */\n      iszero\n      tag_44\n      jumpi\n        /* \"BCLastone.sol\":1606:1619  familyMembers */\n      0x01\n        /* \"BCLastone.sol\":1624:1625  1 */\n      dup1\n        /* \"BCLastone.sol\":1620:1621  j */\n      dup3\n        /* \"BCLastone.sol\":1620:1625  j + 1 */\n      tag_48\n      swap2\n      swap1\n      tag_49\n      jump\t// in\n    tag_48:\n        /* \"BCLastone.sol\":1606:1626  familyMembers[j + 1] */\n      dup2\n      sload\n      dup2\n      lt\n      tag_50\n      jumpi\n      tag_51\n      tag_40\n      jump\t// in\n    tag_51:\n    tag_50:\n      swap1\n      0x00\n      mstore\n      keccak256(0x00, 0x20)\n      swap1\n      0x02\n      mul\n      add\n        /* \"BCLastone.sol\":1587:1600  familyMembers */\n      0x01\n        /* \"BCLastone.sol\":1601:1602  j */\n      dup3\n        /* \"BCLastone.sol\":1587:1603  familyMembers[j] */\n      dup2\n      sload\n      dup2\n      lt\n      tag_53\n      jumpi\n      tag_54\n      tag_40\n      jump\t// in\n    tag_54:\n    tag_53:\n      swap1\n      0x00\n      mstore\n      keccak256(0x00, 0x20)\n      swap1\n      0x02\n      mul\n      add\n        /* \"BCLastone.sol\":1587:1626  familyMembers[j] = familyMembers[j + 1] */\n      0x00\n      dup3\n      add\n      0x00\n      swap1\n      sload\n      swap1\n      0x0100\n      exp\n      swap1\n      div\n      0xffffffffffffffffffffffffffffffffffffffff\n      and\n      dup2\n      0x00\n      add\n      exp(0x0100, 0x00)\n      dup2\n      sload\n      dup2\n      0xffffffffffffffffffffffffffffffffffffffff\n      mul\n      not\n      and\n      swap1\n      dup4\n      0xffffffffffffffffffffffffffffffffffffffff\n      and\n      mul\n      or\n      swap1\n      sstore\n      pop\n      0x01\n      dup3\n      add\n      dup2\n      0x01\n      add\n      swap1\n      dup2\n      tag_56\n      swap2\n      swap1\n      tag_57\n      jump\t// in\n    tag_56:\n      pop\n      swap1\n      pop\n      pop\n        /* \"BCLastone.sol\":1555:1558  j++ */\n      dup1\n      dup1\n      0x01\n      add\n      swap2\n      pop\n      pop\n        /* \"BCLastone.sol\":1508:1650  for (uint j = i; j < familyMembers.length - 1; j++) {... */\n      jump(tag_43)\n    tag_44:\n      pop\n        /* \"BCLastone.sol\":1672:1685  familyMembers */\n      0x01\n        /* \"BCLastone.sol\":1672:1691  familyMembers.pop() */\n      dup1\n      sload\n      dup1\n      tag_58\n      jumpi\n      tag_59\n      tag_60\n      jump\t// in\n    tag_59:\n    tag_58:\n      0x01\n      swap1\n      sub\n      dup2\n      dup2\n      swap1\n      0x00\n      mstore\n      keccak256(0x00, 0x20)\n      swap1\n      0x02\n      mul\n      add\n      0x00\n      dup1\n      dup3\n      add\n      exp(0x0100, 0x00)\n      dup2\n      sload\n      swap1\n      0xffffffffffffffffffffffffffffffffffffffff\n      mul\n      not\n      and\n      swap1\n      sstore\n      0x01\n      dup3\n      add\n      0x00\n      tag_62\n      swap2\n      swap1\n      tag_63\n      jump\t// in\n    tag_62:\n      pop\n      pop\n      swap1\n      sstore\n        /* \"BCLastone.sol\":1714:1719  break */\n      jump(tag_36)\n        /* \"BCLastone.sol\":1432:1739  if (familyMembers[i].walletAddress == walletAddress) {... */\n    tag_42:\n        /* \"BCLastone.sol\":1408:1411  i++ */\n      dup1\n      dup1\n      0x01\n      add\n      swap2\n      pop\n      pop\n        /* \"BCLastone.sol\":1365:1754  for (uint i = 0; i < familyMembers.length; i++) {... */\n      jump(tag_35)\n    tag_36:\n      pop\n        /* \"BCLastone.sol\":1320:1765  if (familyMembers.length > 0) {... */\n    tag_34:\n        /* \"BCLastone.sol\":1243:1772  function removeFamilyMember(address payable walletAddress) public {... */\n      pop\n      jump\t// out\n        /* \"BCLastone.sol\":1963:2367  function distributeFamilyFunds() public {... */\n    tag_15:\n        /* \"BCLastone.sol\":2046:2047  0 */\n      0x00\n        /* \"BCLastone.sol\":2022:2043  address(this).balance */\n      selfbalance\n        /* \"BCLastone.sol\":2022:2047  address(this).balance > 0 */\n      gt\n        /* \"BCLastone.sol\":2014:2088  require(address(this).balance > 0, \"Insufficient balance in the contract\") */\n      tag_65\n      jumpi\n      mload(0x40)\n      0x08c379a000000000000000000000000000000000000000000000000000000000\n      dup2\n      mstore\n      0x04\n      add\n      tag_66\n      swap1\n      tag_67\n      jump\t// in\n    tag_66:\n      mload(0x40)\n      dup1\n      swap2\n      sub\n      swap1\n      revert\n    tag_65:\n        /* \"BCLastone.sol\":2127:2128  1 */\n      0x01\n        /* \"BCLastone.sol\":2103:2116  familyMembers */\n      dup1\n        /* \"BCLastone.sol\":2103:2123  familyMembers.length */\n      dup1\n      sload\n      swap1\n      pop\n        /* \"BCLastone.sol\":2103:2128  familyMembers.length >= 1 */\n      lt\n        /* \"BCLastone.sol\":2099:2360  if (familyMembers.length >= 1) {... */\n      tag_68\n      jumpi\n        /* \"BCLastone.sol\":2145:2156  uint amount */\n      0x00\n        /* \"BCLastone.sol\":2183:2196  familyMembers */\n      0x01\n        /* \"BCLastone.sol\":2183:2203  familyMembers.length */\n      dup1\n      sload\n      swap1\n      pop\n        /* \"BCLastone.sol\":2159:2180  address(this).balance */\n      selfbalance\n        /* \"BCLastone.sol\":2159:2203  address(this).balance / familyMembers.length */\n      tag_69\n      swap2\n      swap1\n      tag_70\n      jump\t// in\n    tag_69:\n        /* \"BCLastone.sol\":2145:2203  uint amount = address(this).balance / familyMembers.length */\n      swap1\n      pop\n        /* \"BCLastone.sol\":2223:2229  uint i */\n      0x00\n        /* \"BCLastone.sol\":2218:2349  for (uint i = 0; i < familyMembers.length; i++) {... */\n    tag_71:\n        /* \"BCLastone.sol\":2239:2252  familyMembers */\n      0x01\n        /* \"BCLastone.sol\":2239:2259  familyMembers.length */\n      dup1\n      sload\n      swap1\n      pop\n        /* \"BCLastone.sol\":2235:2236  i */\n      dup2\n        /* \"BCLastone.sol\":2235:2259  i < familyMembers.length */\n      lt\n        /* \"BCLastone.sol\":2218:2349  for (uint i = 0; i < familyMembers.length; i++) {... */\n      iszero\n      tag_72\n      jumpi\n        /* \"BCLastone.sol\":2285:2333  transfer(familyMembers[i].walletAddress, amount) */\n      tag_74\n        /* \"BCLastone.sol\":2294:2307  familyMembers */\n      0x01\n        /* \"BCLastone.sol\":2308:2309  i */\n      dup3\n        /* \"BCLastone.sol\":2294:2310  familyMembers[i] */\n      dup2\n      sload\n      dup2\n      lt\n      tag_75\n      jumpi\n      tag_76\n      tag_40\n      jump\t// in\n    tag_76:\n    tag_75:\n      swap1\n      0x00\n      mstore\n      keccak256(0x00, 0x20)\n      swap1\n      0x02\n      mul\n      add\n        /* \"BCLastone.sol\":2294:2324  familyMembers[i].walletAddress */\n      0x00\n      add\n      0x00\n      swap1\n      sload\n      swap1\n      0x0100\n      exp\n      swap1\n      div\n      0xffffffffffffffffffffffffffffffffffffffff\n      and\n        /* \"BCLastone.sol\":2326:2332  amount */\n      dup4\n        /* \"BCLastone.sol\":2285:2293  transfer */\n      tag_78\n        /* \"BCLastone.sol\":2285:2333  transfer(familyMembers[i].walletAddress, amount) */\n      jump\t// in\n    tag_74:\n        /* \"BCLastone.sol\":2261:2264  i++ */\n      dup1\n      dup1\n      0x01\n      add\n      swap2\n      pop\n      pop\n        /* \"BCLastone.sol\":2218:2349  for (uint i = 0; i < familyMembers.length; i++) {... */\n      jump(tag_71)\n    tag_72:\n      pop\n        /* \"BCLastone.sol\":2130:2360  {... */\n      pop\n        /* \"BCLastone.sol\":2099:2360  if (familyMembers.length >= 1) {... */\n    tag_68:\n        /* \"BCLastone.sol\":1963:2367  function distributeFamilyFunds() public {... */\n      jump\t// out\n        /* \"BCLastone.sol\":244:294  function addFamilyFund() payable public {... */\n    tag_17:\n      jump\t// out\n        /* \"BCLastone.sol\":334:432  function viewFamilyFund() public view returns(uint){... */\n    tag_20:\n        /* \"BCLastone.sol\":380:384  uint */\n      0x00\n        /* \"BCLastone.sol\":403:424  address(this).balance */\n      selfbalance\n        /* \"BCLastone.sol\":396:424  return address(this).balance */\n      swap1\n      pop\n        /* \"BCLastone.sol\":334:432  function viewFamilyFund() public view returns(uint){... */\n      swap1\n      jump\t// out\n        /* \"BCLastone.sol\":1810:1921  function viewFamilyMembers() public view returns(FamilyMember[] memory) {... */\n    tag_25:\n        /* \"BCLastone.sol\":1859:1880  FamilyMember[] memory */\n      0x60\n        /* \"BCLastone.sol\":1900:1913  familyMembers */\n      0x01\n        /* \"BCLastone.sol\":1893:1913  return familyMembers */\n      dup1\n      sload\n      dup1\n      0x20\n      mul\n      0x20\n      add\n      mload(0x40)\n      swap1\n      dup2\n      add\n      0x40\n      mstore\n      dup1\n      swap3\n      swap2\n      swap1\n      dup2\n      dup2\n      mstore\n      0x20\n      add\n      0x00\n      swap1\n    tag_82:\n      dup3\n      dup3\n      lt\n      iszero\n      tag_83\n      jumpi\n      dup4\n      dup3\n      swap1\n      0x00\n      mstore\n      keccak256(0x00, 0x20)\n      swap1\n      0x02\n      mul\n      add\n      mload(0x40)\n      dup1\n      0x40\n      add\n      0x40\n      mstore\n      swap1\n      dup2\n      0x00\n      dup3\n      add\n      0x00\n      swap1\n      sload\n      swap1\n      0x0100\n      exp\n      swap1\n      div\n      0xffffffffffffffffffffffffffffffffffffffff\n      and\n      0xffffffffffffffffffffffffffffffffffffffff\n      and\n      0xffffffffffffffffffffffffffffffffffffffff\n      and\n      dup2\n      mstore\n      0x20\n      add\n      0x01\n      dup3\n      add\n      dup1\n      sload\n      tag_85\n      swap1\n      tag_86\n      jump\t// in\n    tag_85:\n      dup1\n      0x1f\n      add\n      0x20\n      dup1\n      swap2\n      div\n      mul\n      0x20\n      add\n      mload(0x40)\n      swap1\n      dup2\n      add\n      0x40\n      mstore\n      dup1\n      swap3\n      swap2\n      swap1\n      dup2\n      dup2\n      mstore\n      0x20\n      add\n      dup3\n      dup1\n      sload\n      tag_87\n      swap1\n      tag_86\n      jump\t// in\n    tag_87:\n      dup1\n      iszero\n      tag_88\n      jumpi\n      dup1\n      0x1f\n      lt\n      tag_89\n      jumpi\n      0x0100\n      dup1\n      dup4\n      sload\n      div\n      mul\n      dup4\n      mstore\n      swap2\n      0x20\n      add\n      swap2\n      jump(tag_88)\n    tag_89:\n      dup3\n      add\n      swap2\n      swap1\n      0x00\n      mstore\n      keccak256(0x00, 0x20)\n      swap1\n    tag_90:\n      dup2\n      sload\n      dup2\n      mstore\n      swap1\n      0x01\n      add\n      swap1\n      0x20\n      add\n      dup1\n      dup4\n      gt\n      tag_90\n      jumpi\n      dup3\n      swap1\n      sub\n      0x1f\n      and\n      dup3\n      add\n      swap2\n    tag_88:\n      pop\n      pop\n      pop\n      pop\n      pop\n      dup2\n      mstore\n      pop\n      pop\n      dup2\n      mstore\n      0x20\n      add\n      swap1\n      0x01\n      add\n      swap1\n      jump(tag_82)\n    tag_83:\n      pop\n      pop\n      pop\n      pop\n      swap1\n      pop\n        /* \"BCLastone.sol\":1810:1921  function viewFamilyMembers() public view returns(FamilyMember[] memory) {... */\n      swap1\n      jump\t// out\n        /* \"BCLastone.sol\":596:1204  function addFamilyMember(address payable walletAddress, string memory name) public {... */\n    tag_32:\n        /* \"BCLastone.sol\":712:717  owner */\n      0x00\n      dup1\n      sload\n      swap1\n      0x0100\n      exp\n      swap1\n      div\n      0xffffffffffffffffffffffffffffffffffffffff\n      and\n        /* \"BCLastone.sol\":698:717  msg.sender == owner */\n      0xffffffffffffffffffffffffffffffffffffffff\n      and\n        /* \"BCLastone.sol\":698:708  msg.sender */\n      caller\n        /* \"BCLastone.sol\":698:717  msg.sender == owner */\n      0xffffffffffffffffffffffffffffffffffffffff\n      and\n      eq\n        /* \"BCLastone.sol\":690:759  require(msg.sender == owner, \"Only the owner can call this function\") */\n      tag_92\n      jumpi\n      mload(0x40)\n      0x08c379a000000000000000000000000000000000000000000000000000000000\n      dup2\n      mstore\n      0x04\n      add\n      tag_93\n      swap1\n      tag_94\n      jump\t// in\n    tag_93:\n      mload(0x40)\n      dup1\n      swap2\n      sub\n      swap1\n      revert\n    tag_92:\n        /* \"BCLastone.sol\":770:793  bool familyMemberExists */\n      0x00\n        /* \"BCLastone.sol\":842:843  1 */\n      0x01\n        /* \"BCLastone.sol\":818:831  familyMembers */\n      dup1\n        /* \"BCLastone.sol\":818:838  familyMembers.length */\n      dup1\n      sload\n      swap1\n      pop\n        /* \"BCLastone.sol\":818:843  familyMembers.length >= 1 */\n      lt\n        /* \"BCLastone.sol\":814:1074  if (familyMembers.length >= 1) {... */\n      tag_95\n      jumpi\n        /* \"BCLastone.sol\":865:871  uint i */\n      0x00\n        /* \"BCLastone.sol\":860:1063  for (uint i = 0; i < familyMembers.length; i++) {... */\n    tag_96:\n        /* \"BCLastone.sol\":881:894  familyMembers */\n      0x01\n        /* \"BCLastone.sol\":881:901  familyMembers.length */\n      dup1\n      sload\n      swap1\n      pop\n        /* \"BCLastone.sol\":877:878  i */\n      dup2\n        /* \"BCLastone.sol\":877:901  i < familyMembers.length */\n      lt\n        /* \"BCLastone.sol\":860:1063  for (uint i = 0; i < familyMembers.length; i++) {... */\n      iszero\n      tag_97\n      jumpi\n        /* \"BCLastone.sol\":965:978  walletAddress */\n      dup4\n        /* \"BCLastone.sol\":931:978  familyMembers[i].walletAddress == walletAddress */\n      0xffffffffffffffffffffffffffffffffffffffff\n      and\n        /* \"BCLastone.sol\":931:944  familyMembers */\n      0x01\n        /* \"BCLastone.sol\":945:946  i */\n      dup3\n        /* \"BCLastone.sol\":931:947  familyMembers[i] */\n      dup2\n      sload\n      dup2\n      lt\n      tag_99\n      jumpi\n      tag_100\n      tag_40\n      jump\t// in\n    tag_100:\n    tag_99:\n      swap1\n      0x00\n      mstore\n      keccak256(0x00, 0x20)\n      swap1\n      0x02\n      mul\n      add\n        /* \"BCLastone.sol\":931:961  familyMembers[i].walletAddress */\n      0x00\n      add\n      0x00\n      swap1\n      sload\n      swap1\n      0x0100\n      exp\n      swap1\n      div\n      0xffffffffffffffffffffffffffffffffffffffff\n      and\n        /* \"BCLastone.sol\":931:978  familyMembers[i].walletAddress == walletAddress */\n      0xffffffffffffffffffffffffffffffffffffffff\n      and\n      sub\n        /* \"BCLastone.sol\":927:1048  if (familyMembers[i].walletAddress == walletAddress) {... */\n      tag_102\n      jumpi\n        /* \"BCLastone.sol\":1024:1028  true */\n      0x01\n        /* \"BCLastone.sol\":1003:1028  familyMemberExists = true */\n      swap2\n      pop\n        /* \"BCLastone.sol\":927:1048  if (familyMembers[i].walletAddress == walletAddress) {... */\n    tag_102:\n        /* \"BCLastone.sol\":903:906  i++ */\n      dup1\n      dup1\n      0x01\n      add\n      swap2\n      pop\n      pop\n        /* \"BCLastone.sol\":860:1063  for (uint i = 0; i < familyMembers.length; i++) {... */\n      jump(tag_96)\n    tag_97:\n      pop\n        /* \"BCLastone.sol\":814:1074  if (familyMembers.length >= 1) {... */\n    tag_95:\n        /* \"BCLastone.sol\":1110:1115  false */\n      0x00\n        /* \"BCLastone.sol\":1088:1115  familyMemberExists == false */\n      iszero\n      iszero\n        /* \"BCLastone.sol\":1088:1106  familyMemberExists */\n      dup2\n        /* \"BCLastone.sol\":1088:1115  familyMemberExists == false */\n      iszero\n      iszero\n      sub\n        /* \"BCLastone.sol\":1084:1197  if (familyMemberExists == false) {... */\n      tag_103\n      jumpi\n        /* \"BCLastone.sol\":1132:1145  familyMembers */\n      0x01\n        /* \"BCLastone.sol\":1151:1184  FamilyMember(walletAddress, name) */\n      mload(0x40)\n      dup1\n      0x40\n      add\n      0x40\n      mstore\n      dup1\n        /* \"BCLastone.sol\":1164:1177  walletAddress */\n      dup6\n        /* \"BCLastone.sol\":1151:1184  FamilyMember(walletAddress, name) */\n      0xffffffffffffffffffffffffffffffffffffffff\n      and\n      dup2\n      mstore\n      0x20\n      add\n        /* \"BCLastone.sol\":1179:1183  name */\n      dup5\n        /* \"BCLastone.sol\":1151:1184  FamilyMember(walletAddress, name) */\n      dup2\n      mstore\n      pop\n        /* \"BCLastone.sol\":1132:1185  familyMembers.push(FamilyMember(walletAddress, name)) */\n      swap1\n      dup1\n      0x01\n      dup2\n      sload\n      add\n      dup1\n      dup3\n      sstore\n      dup1\n      swap2\n      pop\n      pop\n      0x01\n      swap1\n      sub\n      swap1\n      0x00\n      mstore\n      keccak256(0x00, 0x20)\n      swap1\n      0x02\n      mul\n      add\n      0x00\n      swap1\n      swap2\n      swap1\n      swap2\n      swap1\n      swap2\n      pop\n      0x00\n      dup3\n      add\n      mload\n      dup2\n      0x00\n      add\n      exp(0x0100, 0x00)\n      dup2\n      sload\n      dup2\n      0xffffffffffffffffffffffffffffffffffffffff\n      mul\n      not\n      and\n      swap1\n      dup4\n      0xffffffffffffffffffffffffffffffffffffffff\n      and\n      mul\n      or\n      swap1\n      sstore\n      pop\n      0x20\n      dup3\n      add\n      mload\n      dup2\n      0x01\n      add\n      swap1\n      dup2\n      tag_105\n      swap2\n      swap1\n      tag_106\n      jump\t// in\n    tag_105:\n      pop\n      pop\n      pop\n        /* \"BCLastone.sol\":1084:1197  if (familyMemberExists == false) {... */\n    tag_103:\n        /* \"BCLastone.sol\":679:1204  {... */\n      pop\n        /* \"BCLastone.sol\":596:1204  function addFamilyMember(address payable walletAddress, string memory name) public {... */\n      pop\n      pop\n      jump\t// out\n        /* \"BCLastone.sol\":2400:2520  function transfer(address payable walletAddress, uint amount) internal {... */\n    tag_78:\n        /* \"BCLastone.sol\":2482:2495  walletAddress */\n      dup2\n        /* \"BCLastone.sol\":2482:2504  walletAddress.transfer */\n      0xffffffffffffffffffffffffffffffffffffffff\n      and\n        /* \"BCLastone.sol\":2482:2512  walletAddress.transfer(amount) */\n      0x08fc\n        /* \"BCLastone.sol\":2505:2511  amount */\n      dup3\n        /* \"BCLastone.sol\":2482:2512  walletAddress.transfer(amount) */\n      swap1\n      dup2\n      iszero\n      mul\n      swap1\n      mload(0x40)\n      0x00\n      mload(0x40)\n      dup1\n      dup4\n      sub\n      dup2\n      dup6\n      dup9\n      dup9\n      call\n      swap4\n      pop\n      pop\n      pop\n      pop\n      iszero\n      dup1\n      iszero\n      tag_109\n      jumpi\n      returndatasize\n      0x00\n      dup1\n      returndatacopy\n      revert(0x00, returndatasize)\n    tag_109:\n      pop\n        /* \"BCLastone.sol\":2400:2520  function transfer(address payable walletAddress, uint amount) internal {... */\n      pop\n      pop\n      jump\t// out\n    tag_63:\n      pop\n      dup1\n      sload\n      tag_110\n      swap1\n      tag_86\n      jump\t// in\n    tag_110:\n      0x00\n      dup3\n      sstore\n      dup1\n      0x1f\n      lt\n      tag_112\n      jumpi\n      pop\n      jump(tag_111)\n    tag_112:\n      0x1f\n      add\n      0x20\n      swap1\n      div\n      swap1\n      0x00\n      mstore\n      keccak256(0x00, 0x20)\n      swap1\n      dup2\n      add\n      swap1\n      tag_113\n      swap2\n      swap1\n      tag_114\n      jump\t// in\n    tag_113:\n    tag_111:\n      pop\n      jump\t// out\n    tag_114:\n    tag_115:\n      dup1\n      dup3\n      gt\n      iszero\n      tag_116\n      jumpi\n      0x00\n      dup2\n      0x00\n      swap1\n      sstore\n      pop\n      0x01\n      add\n      jump(tag_115)\n    tag_116:\n      pop\n      swap1\n      jump\t// out\n        /* \"#utility.yul\":7:82   */\n    tag_117:\n        /* \"#utility.yul\":40:46   */\n      0x00\n        /* \"#utility.yul\":73:75   */\n      0x40\n        /* \"#utility.yul\":67:76   */\n      mload\n        /* \"#utility.yul\":57:76   */\n      swap1\n      pop\n        /* \"#utility.yul\":7:82   */\n      swap1\n      jump\t// out\n        /* \"#utility.yul\":88:205   */\n    tag_118:\n        /* \"#utility.yul\":197:198   */\n      0x00\n        /* \"#utility.yul\":194:195   */\n      dup1\n        /* \"#utility.yul\":187:199   */\n      revert\n        /* \"#utility.yul\":211:328   */\n    tag_119:\n        /* \"#utility.yul\":320:321   */\n      0x00\n        /* \"#utility.yul\":317:318   */\n      dup1\n        /* \"#utility.yul\":310:322   */\n      revert\n        /* \"#utility.yul\":334:460   */\n    tag_120:\n        /* \"#utility.yul\":371:378   */\n      0x00\n        /* \"#utility.yul\":411:453   */\n      0xffffffffffffffffffffffffffffffffffffffff\n        /* \"#utility.yul\":404:409   */\n      dup3\n        /* \"#utility.yul\":400:454   */\n      and\n        /* \"#utility.yul\":389:454   */\n      swap1\n      pop\n        /* \"#utility.yul\":334:460   */\n      swap2\n      swap1\n      pop\n      jump\t// out\n        /* \"#utility.yul\":466:570   */\n    tag_121:\n        /* \"#utility.yul\":511:518   */\n      0x00\n        /* \"#utility.yul\":540:564   */\n      tag_178\n        /* \"#utility.yul\":558:563   */\n      dup3\n        /* \"#utility.yul\":540:564   */\n      tag_120\n      jump\t// in\n    tag_178:\n        /* \"#utility.yul\":529:564   */\n      swap1\n      pop\n        /* \"#utility.yul\":466:570   */\n      swap2\n      swap1\n      pop\n      jump\t// out\n        /* \"#utility.yul\":576:714   */\n    tag_122:\n        /* \"#utility.yul\":657:689   */\n      tag_180\n        /* \"#utility.yul\":683:688   */\n      dup2\n        /* \"#utility.yul\":657:689   */\n      tag_121\n      jump\t// in\n    tag_180:\n        /* \"#utility.yul\":650:655   */\n      dup2\n        /* \"#utility.yul\":647:690   */\n      eq\n        /* \"#utility.yul\":637:708   */\n      tag_181\n      jumpi\n        /* \"#utility.yul\":704:705   */\n      0x00\n        /* \"#utility.yul\":701:702   */\n      dup1\n        /* \"#utility.yul\":694:706   */\n      revert\n        /* \"#utility.yul\":637:708   */\n    tag_181:\n        /* \"#utility.yul\":576:714   */\n      pop\n      jump\t// out\n        /* \"#utility.yul\":720:875   */\n    tag_123:\n        /* \"#utility.yul\":774:779   */\n      0x00\n        /* \"#utility.yul\":812:818   */\n      dup2\n        /* \"#utility.yul\":799:819   */\n      calldataload\n        /* \"#utility.yul\":790:819   */\n      swap1\n      pop\n        /* \"#utility.yul\":828:869   */\n      tag_183\n        /* \"#utility.yul\":863:868   */\n      dup2\n        /* \"#utility.yul\":828:869   */\n      tag_122\n      jump\t// in\n    tag_183:\n        /* \"#utility.yul\":720:875   */\n      swap3\n      swap2\n      pop\n      pop\n      jump\t// out\n        /* \"#utility.yul\":881:1226   */\n    tag_11:\n        /* \"#utility.yul\":948:954   */\n      0x00\n        /* \"#utility.yul\":997:999   */\n      0x20\n        /* \"#utility.yul\":985:994   */\n      dup3\n        /* \"#utility.yul\":976:983   */\n      dup5\n        /* \"#utility.yul\":972:995   */\n      sub\n        /* \"#utility.yul\":968:1000   */\n      slt\n        /* \"#utility.yul\":965:1084   */\n      iszero\n      tag_185\n      jumpi\n        /* \"#utility.yul\":1003:1082   */\n      tag_186\n      tag_118\n      jump\t// in\n    tag_186:\n        /* \"#utility.yul\":965:1084   */\n    tag_185:\n        /* \"#utility.yul\":1123:1124   */\n      0x00\n        /* \"#utility.yul\":1148:1209   */\n      tag_187\n        /* \"#utility.yul\":1201:1208   */\n      dup5\n        /* \"#utility.yul\":1192:1198   */\n      dup3\n        /* \"#utility.yul\":1181:1190   */\n      dup6\n        /* \"#utility.yul\":1177:1199   */\n      add\n        /* \"#utility.yul\":1148:1209   */\n      tag_123\n      jump\t// in\n    tag_187:\n        /* \"#utility.yul\":1138:1209   */\n      swap2\n      pop\n        /* \"#utility.yul\":1094:1219   */\n      pop\n        /* \"#utility.yul\":881:1226   */\n      swap3\n      swap2\n      pop\n      pop\n      jump\t// out\n        /* \"#utility.yul\":1232:1309   */\n    tag_124:\n        /* \"#utility.yul\":1269:1276   */\n      0x00\n        /* \"#utility.yul\":1298:1303   */\n      dup2\n        /* \"#utility.yul\":1287:1303   */\n      swap1\n      pop\n        /* \"#utility.yul\":1232:1309   */\n      swap2\n      swap1\n      pop\n      jump\t// out\n        /* \"#utility.yul\":1315:1433   */\n    tag_125:\n        /* \"#utility.yul\":1402:1426   */\n      tag_190\n        /* \"#utility.yul\":1420:1425   */\n      dup2\n        /* \"#utility.yul\":1402:1426   */\n      tag_124\n      jump\t// in\n    tag_190:\n        /* \"#utility.yul\":1397:1400   */\n      dup3\n        /* \"#utility.yul\":1390:1427   */\n      mstore\n        /* \"#utility.yul\":1315:1433   */\n      pop\n      pop\n      jump\t// out\n        /* \"#utility.yul\":1439:1661   */\n    tag_22:\n        /* \"#utility.yul\":1532:1536   */\n      0x00\n        /* \"#utility.yul\":1570:1572   */\n      0x20\n        /* \"#utility.yul\":1559:1568   */\n      dup3\n        /* \"#utility.yul\":1555:1573   */\n      add\n        /* \"#utility.yul\":1547:1573   */\n      swap1\n      pop\n        /* \"#utility.yul\":1583:1654   */\n      tag_192\n        /* \"#utility.yul\":1651:1652   */\n      0x00\n        /* \"#utility.yul\":1640:1649   */\n      dup4\n        /* \"#utility.yul\":1636:1653   */\n      add\n        /* \"#utility.yul\":1627:1633   */\n      dup5\n        /* \"#utility.yul\":1583:1654   */\n      tag_125\n      jump\t// in\n    tag_192:\n        /* \"#utility.yul\":1439:1661   */\n      swap3\n      swap2\n      pop\n      pop\n      jump\t// out\n        /* \"#utility.yul\":1667:1809   */\n    tag_126:\n        /* \"#utility.yul\":1762:1768   */\n      0x00\n        /* \"#utility.yul\":1796:1801   */\n      dup2\n        /* \"#utility.yul\":1790:1802   */\n      mload\n        /* \"#utility.yul\":1780:1802   */\n      swap1\n      pop\n        /* \"#utility.yul\":1667:1809   */\n      swap2\n      swap1\n      pop\n      jump\t// out\n        /* \"#utility.yul\":1815:2027   */\n    tag_127:\n        /* \"#utility.yul\":1942:1953   */\n      0x00\n        /* \"#utility.yul\":1976:1982   */\n      dup3\n        /* \"#utility.yul\":1971:1974   */\n      dup3\n        /* \"#utility.yul\":1964:1983   */\n      mstore\n        /* \"#utility.yul\":2016:2020   */\n      0x20\n        /* \"#utility.yul\":2011:2014   */\n      dup3\n        /* \"#utility.yul\":2007:2021   */\n      add\n        /* \"#utility.yul\":1992:2021   */\n      swap1\n      pop\n        /* \"#utility.yul\":1815:2027   */\n      swap3\n      swap2\n      pop\n      pop\n      jump\t// out\n        /* \"#utility.yul\":2033:2193   */\n    tag_128:\n        /* \"#utility.yul\":2128:2132   */\n      0x00\n        /* \"#utility.yul\":2151:2154   */\n      dup2\n        /* \"#utility.yul\":2143:2154   */\n      swap1\n      pop\n        /* \"#utility.yul\":2181:2185   */\n      0x20\n        /* \"#utility.yul\":2176:2179   */\n      dup3\n        /* \"#utility.yul\":2172:2186   */\n      add\n        /* \"#utility.yul\":2164:2186   */\n      swap1\n      pop\n        /* \"#utility.yul\":2033:2193   */\n      swap2\n      swap1\n      pop\n      jump\t// out\n        /* \"#utility.yul\":2199:2331   */\n    tag_129:\n        /* \"#utility.yul\":2292:2324   */\n      tag_197\n        /* \"#utility.yul\":2318:2323   */\n      dup2\n        /* \"#utility.yul\":2292:2324   */\n      tag_121\n      jump\t// in\n    tag_197:\n        /* \"#utility.yul\":2287:2290   */\n      dup3\n        /* \"#utility.yul\":2280:2325   */\n      mstore\n        /* \"#utility.yul\":2199:2331   */\n      pop\n      pop\n      jump\t// out\n        /* \"#utility.yul\":2337:2436   */\n    tag_130:\n        /* \"#utility.yul\":2389:2395   */\n      0x00\n        /* \"#utility.yul\":2423:2428   */\n      dup2\n        /* \"#utility.yul\":2417:2429   */\n      mload\n        /* \"#utility.yul\":2407:2429   */\n      swap1\n      pop\n        /* \"#utility.yul\":2337:2436   */\n      swap2\n      swap1\n      pop\n      jump\t// out\n        /* \"#utility.yul\":2442:2601   */\n    tag_131:\n        /* \"#utility.yul\":2516:2527   */\n      0x00\n        /* \"#utility.yul\":2550:2556   */\n      dup3\n        /* \"#utility.yul\":2545:2548   */\n      dup3\n        /* \"#utility.yul\":2538:2557   */\n      mstore\n        /* \"#utility.yul\":2590:2594   */\n      0x20\n        /* \"#utility.yul\":2585:2588   */\n      dup3\n        /* \"#utility.yul\":2581:2595   */\n      add\n        /* \"#utility.yul\":2566:2595   */\n      swap1\n      pop\n        /* \"#utility.yul\":2442:2601   */\n      swap3\n      swap2\n      pop\n      pop\n      jump\t// out\n        /* \"#utility.yul\":2607:2746   */\n    tag_132:\n        /* \"#utility.yul\":2696:2702   */\n      dup3\n        /* \"#utility.yul\":2691:2694   */\n      dup2\n        /* \"#utility.yul\":2686:2689   */\n      dup4\n        /* \"#utility.yul\":2680:2703   */\n      mcopy\n        /* \"#utility.yul\":2737:2738   */\n      0x00\n        /* \"#utility.yul\":2728:2734   */\n      dup4\n        /* \"#utility.yul\":2723:2726   */\n      dup4\n        /* \"#utility.yul\":2719:2735   */\n      add\n        /* \"#utility.yul\":2712:2739   */\n      mstore\n        /* \"#utility.yul\":2607:2746   */\n      pop\n      pop\n      pop\n      jump\t// out\n        /* \"#utility.yul\":2752:2854   */\n    tag_133:\n        /* \"#utility.yul\":2793:2799   */\n      0x00\n        /* \"#utility.yul\":2844:2846   */\n      0x1f\n        /* \"#utility.yul\":2840:2847   */\n      not\n        /* \"#utility.yul\":2835:2837   */\n      0x1f\n        /* \"#utility.yul\":2828:2833   */\n      dup4\n        /* \"#utility.yul\":2824:2838   */\n      add\n        /* \"#utility.yul\":2820:2848   */\n      and\n        /* \"#utility.yul\":2810:2848   */\n      swap1\n      pop\n        /* \"#utility.yul\":2752:2854   */\n      swap2\n      swap1\n      pop\n      jump\t// out\n        /* \"#utility.yul\":2860:3217   */\n    tag_134:\n        /* \"#utility.yul\":2938:2941   */\n      0x00\n        /* \"#utility.yul\":2966:3005   */\n      tag_203\n        /* \"#utility.yul\":2999:3004   */\n      dup3\n        /* \"#utility.yul\":2966:3005   */\n      tag_130\n      jump\t// in\n    tag_203:\n        /* \"#utility.yul\":3021:3082   */\n      tag_204\n        /* \"#utility.yul\":3075:3081   */\n      dup2\n        /* \"#utility.yul\":3070:3073   */\n      dup6\n        /* \"#utility.yul\":3021:3082   */\n      tag_131\n      jump\t// in\n    tag_204:\n        /* \"#utility.yul\":3014:3082   */\n      swap4\n      pop\n        /* \"#utility.yul\":3091:3156   */\n      tag_205\n        /* \"#utility.yul\":3149:3155   */\n      dup2\n        /* \"#utility.yul\":3144:3147   */\n      dup6\n        /* \"#utility.yul\":3137:3141   */\n      0x20\n        /* \"#utility.yul\":3130:3135   */\n      dup7\n        /* \"#utility.yul\":3126:3142   */\n      add\n        /* \"#utility.yul\":3091:3156   */\n      tag_132\n      jump\t// in\n    tag_205:\n        /* \"#utility.yul\":3181:3210   */\n      tag_206\n        /* \"#utility.yul\":3203:3209   */\n      dup2\n        /* \"#utility.yul\":3181:3210   */\n      tag_133\n      jump\t// in\n    tag_206:\n        /* \"#utility.yul\":3176:3179   */\n      dup5\n        /* \"#utility.yul\":3172:3211   */\n      add\n        /* \"#utility.yul\":3165:3211   */\n      swap2\n      pop\n        /* \"#utility.yul\":2942:3217   */\n      pop\n        /* \"#utility.yul\":2860:3217   */\n      swap3\n      swap2\n      pop\n      pop\n      jump\t// out\n        /* \"#utility.yul\":3295:3922   */\n    tag_135:\n        /* \"#utility.yul\":3410:3413   */\n      0x00\n        /* \"#utility.yul\":3446:3450   */\n      0x40\n        /* \"#utility.yul\":3441:3444   */\n      dup4\n        /* \"#utility.yul\":3437:3451   */\n      add\n        /* \"#utility.yul\":3542:3546   */\n      0x00\n        /* \"#utility.yul\":3535:3540   */\n      dup4\n        /* \"#utility.yul\":3531:3547   */\n      add\n        /* \"#utility.yul\":3525:3548   */\n      mload\n        /* \"#utility.yul\":3561:3640   */\n      tag_208\n        /* \"#utility.yul\":3634:3638   */\n      0x00\n        /* \"#utility.yul\":3629:3632   */\n      dup7\n        /* \"#utility.yul\":3625:3639   */\n      add\n        /* \"#utility.yul\":3611:3623   */\n      dup3\n        /* \"#utility.yul\":3561:3640   */\n      tag_129\n      jump\t// in\n    tag_208:\n        /* \"#utility.yul\":3461:3650   */\n      pop\n        /* \"#utility.yul\":3732:3736   */\n      0x20\n        /* \"#utility.yul\":3725:3730   */\n      dup4\n        /* \"#utility.yul\":3721:3737   */\n      add\n        /* \"#utility.yul\":3715:3738   */\n      mload\n        /* \"#utility.yul\":3785:3788   */\n      dup5\n        /* \"#utility.yul\":3779:3783   */\n      dup3\n        /* \"#utility.yul\":3775:3789   */\n      sub\n        /* \"#utility.yul\":3768:3772   */\n      0x20\n        /* \"#utility.yul\":3763:3766   */\n      dup7\n        /* \"#utility.yul\":3759:3773   */\n      add\n        /* \"#utility.yul\":3752:3790   */\n      mstore\n        /* \"#utility.yul\":3811:3884   */\n      tag_209\n        /* \"#utility.yul\":3879:3883   */\n      dup3\n        /* \"#utility.yul\":3865:3877   */\n      dup3\n        /* \"#utility.yul\":3811:3884   */\n      tag_134\n      jump\t// in\n    tag_209:\n        /* \"#utility.yul\":3803:3884   */\n      swap2\n      pop\n        /* \"#utility.yul\":3660:3895   */\n      pop\n        /* \"#utility.yul\":3912:3916   */\n      dup1\n        /* \"#utility.yul\":3905:3916   */\n      swap2\n      pop\n        /* \"#utility.yul\":3415:3922   */\n      pop\n        /* \"#utility.yul\":3295:3922   */\n      swap3\n      swap2\n      pop\n      pop\n      jump\t// out\n        /* \"#utility.yul\":3928:4196   */\n    tag_136:\n        /* \"#utility.yul\":4053:4063   */\n      0x00\n        /* \"#utility.yul\":4088:4190   */\n      tag_211\n        /* \"#utility.yul\":4186:4189   */\n      dup4\n        /* \"#utility.yul\":4178:4184   */\n      dup4\n        /* \"#utility.yul\":4088:4190   */\n      tag_135\n      jump\t// in\n    tag_211:\n        /* \"#utility.yul\":4074:4190   */\n      swap1\n      pop\n        /* \"#utility.yul\":3928:4196   */\n      swap3\n      swap2\n      pop\n      pop\n      jump\t// out\n        /* \"#utility.yul\":4202:4343   */\n    tag_137:\n        /* \"#utility.yul\":4300:4304   */\n      0x00\n        /* \"#utility.yul\":4332:4336   */\n      0x20\n        /* \"#utility.yul\":4327:4330   */\n      dup3\n        /* \"#utility.yul\":4323:4337   */\n      add\n        /* \"#utility.yul\":4315:4337   */\n      swap1\n      pop\n        /* \"#utility.yul\":4202:4343   */\n      swap2\n      swap1\n      pop\n      jump\t// out\n        /* \"#utility.yul\":4425:5560   */\n    tag_138:\n        /* \"#utility.yul\":4600:4603   */\n      0x00\n        /* \"#utility.yul\":4629:4711   */\n      tag_214\n        /* \"#utility.yul\":4705:4710   */\n      dup3\n        /* \"#utility.yul\":4629:4711   */\n      tag_126\n      jump\t// in\n    tag_214:\n        /* \"#utility.yul\":4727:4841   */\n      tag_215\n        /* \"#utility.yul\":4834:4840   */\n      dup2\n        /* \"#utility.yul\":4829:4832   */\n      dup6\n        /* \"#utility.yul\":4727:4841   */\n      tag_127\n      jump\t// in\n    tag_215:\n        /* \"#utility.yul\":4720:4841   */\n      swap4\n      pop\n        /* \"#utility.yul\":4867:4870   */\n      dup4\n        /* \"#utility.yul\":4912:4916   */\n      0x20\n        /* \"#utility.yul\":4904:4910   */\n      dup3\n        /* \"#utility.yul\":4900:4917   */\n      mul\n        /* \"#utility.yul\":4895:4898   */\n      dup6\n        /* \"#utility.yul\":4891:4918   */\n      add\n        /* \"#utility.yul\":4942:5026   */\n      tag_216\n        /* \"#utility.yul\":5020:5025   */\n      dup6\n        /* \"#utility.yul\":4942:5026   */\n      tag_128\n      jump\t// in\n    tag_216:\n        /* \"#utility.yul\":5049:5056   */\n      dup1\n        /* \"#utility.yul\":5080:5081   */\n      0x00\n        /* \"#utility.yul\":5065:5515   */\n    tag_217:\n        /* \"#utility.yul\":5090:5096   */\n      dup6\n        /* \"#utility.yul\":5087:5088   */\n      dup2\n        /* \"#utility.yul\":5084:5097   */\n      lt\n        /* \"#utility.yul\":5065:5515   */\n      iszero\n      tag_219\n      jumpi\n        /* \"#utility.yul\":5161:5170   */\n      dup5\n        /* \"#utility.yul\":5155:5159   */\n      dup5\n        /* \"#utility.yul\":5151:5171   */\n      sub\n        /* \"#utility.yul\":5146:5149   */\n      dup10\n        /* \"#utility.yul\":5139:5172   */\n      mstore\n        /* \"#utility.yul\":5212:5218   */\n      dup2\n        /* \"#utility.yul\":5206:5219   */\n      mload\n        /* \"#utility.yul\":5240:5360   */\n      tag_220\n        /* \"#utility.yul\":5355:5359   */\n      dup6\n        /* \"#utility.yul\":5340:5353   */\n      dup3\n        /* \"#utility.yul\":5240:5360   */\n      tag_136\n      jump\t// in\n    tag_220:\n        /* \"#utility.yul\":5232:5360   */\n      swap5\n      pop\n        /* \"#utility.yul\":5383:5471   */\n      tag_221\n        /* \"#utility.yul\":5464:5470   */\n      dup4\n        /* \"#utility.yul\":5383:5471   */\n      tag_137\n      jump\t// in\n    tag_221:\n        /* \"#utility.yul\":5373:5471   */\n      swap3\n      pop\n        /* \"#utility.yul\":5500:5504   */\n      0x20\n        /* \"#utility.yul\":5495:5498   */\n      dup11\n        /* \"#utility.yul\":5491:5505   */\n      add\n        /* \"#utility.yul\":5484:5505   */\n      swap10\n      pop\n        /* \"#utility.yul\":5125:5515   */\n      pop\n        /* \"#utility.yul\":5112:5113   */\n      0x01\n        /* \"#utility.yul\":5109:5110   */\n      dup2\n        /* \"#utility.yul\":5105:5114   */\n      add\n        /* \"#utility.yul\":5100:5114   */\n      swap1\n      pop\n        /* \"#utility.yul\":5065:5515   */\n      jump(tag_217)\n    tag_219:\n        /* \"#utility.yul\":5069:5083   */\n      pop\n        /* \"#utility.yul\":5531:5535   */\n      dup3\n        /* \"#utility.yul\":5524:5535   */\n      swap8\n      pop\n        /* \"#utility.yul\":5551:5554   */\n      dup8\n        /* \"#utility.yul\":5544:5554   */\n      swap6\n      pop\n        /* \"#utility.yul\":4605:5560   */\n      pop\n      pop\n      pop\n      pop\n      pop\n        /* \"#utility.yul\":4425:5560   */\n      swap3\n      swap2\n      pop\n      pop\n      jump\t// out\n        /* \"#utility.yul\":5566:6051   */\n    tag_27:\n        /* \"#utility.yul\":5765:5769   */\n      0x00\n        /* \"#utility.yul\":5803:5805   */\n      0x20\n        /* \"#utility.yul\":5792:5801   */\n      dup3\n        /* \"#utility.yul\":5788:5806   */\n      add\n        /* \"#utility.yul\":5780:5806   */\n      swap1\n      pop\n        /* \"#utility.yul\":5852:5861   */\n      dup2\n        /* \"#utility.yul\":5846:5850   */\n      dup2\n        /* \"#utility.yul\":5842:5862   */\n      sub\n        /* \"#utility.yul\":5838:5839   */\n      0x00\n        /* \"#utility.yul\":5827:5836   */\n      dup4\n        /* \"#utility.yul\":5823:5840   */\n      add\n        /* \"#utility.yul\":5816:5863   */\n      mstore\n        /* \"#utility.yul\":5880:6044   */\n      tag_223\n        /* \"#utility.yul\":6039:6043   */\n      dup2\n        /* \"#utility.yul\":6030:6036   */\n      dup5\n        /* \"#utility.yul\":5880:6044   */\n      tag_138\n      jump\t// in\n    tag_223:\n        /* \"#utility.yul\":5872:6044   */\n      swap1\n      pop\n        /* \"#utility.yul\":5566:6051   */\n      swap3\n      swap2\n      pop\n      pop\n      jump\t// out\n        /* \"#utility.yul\":6057:6174   */\n    tag_139:\n        /* \"#utility.yul\":6166:6167   */\n      0x00\n        /* \"#utility.yul\":6163:6164   */\n      dup1\n        /* \"#utility.yul\":6156:6168   */\n      revert\n        /* \"#utility.yul\":6180:6297   */\n    tag_140:\n        /* \"#utility.yul\":6289:6290   */\n      0x00\n        /* \"#utility.yul\":6286:6287   */\n      dup1\n        /* \"#utility.yul\":6279:6291   */\n      revert\n        /* \"#utility.yul\":6303:6483   */\n    tag_141:\n        /* \"#utility.yul\":6351:6428   */\n      0x4e487b7100000000000000000000000000000000000000000000000000000000\n        /* \"#utility.yul\":6348:6349   */\n      0x00\n        /* \"#utility.yul\":6341:6429   */\n      mstore\n        /* \"#utility.yul\":6448:6452   */\n      0x41\n        /* \"#utility.yul\":6445:6446   */\n      0x04\n        /* \"#utility.yul\":6438:6453   */\n      mstore\n        /* \"#utility.yul\":6472:6476   */\n      0x24\n        /* \"#utility.yul\":6469:6470   */\n      0x00\n        /* \"#utility.yul\":6462:6477   */\n      revert\n        /* \"#utility.yul\":6489:6770   */\n    tag_142:\n        /* \"#utility.yul\":6572:6599   */\n      tag_228\n        /* \"#utility.yul\":6594:6598   */\n      dup3\n        /* \"#utility.yul\":6572:6599   */\n      tag_133\n      jump\t// in\n    tag_228:\n        /* \"#utility.yul\":6564:6570   */\n      dup2\n        /* \"#utility.yul\":6560:6600   */\n      add\n        /* \"#utility.yul\":6702:6708   */\n      dup2\n        /* \"#utility.yul\":6690:6700   */\n      dup2\n        /* \"#utility.yul\":6687:6709   */\n      lt\n        /* \"#utility.yul\":6666:6684   */\n      0xffffffffffffffff\n        /* \"#utility.yul\":6654:6664   */\n      dup3\n        /* \"#utility.yul\":6651:6685   */\n      gt\n        /* \"#utility.yul\":6648:6710   */\n      or\n        /* \"#utility.yul\":6645:6733   */\n      iszero\n      tag_229\n      jumpi\n        /* \"#utility.yul\":6713:6731   */\n      tag_230\n      tag_141\n      jump\t// in\n    tag_230:\n        /* \"#utility.yul\":6645:6733   */\n    tag_229:\n        /* \"#utility.yul\":6753:6763   */\n      dup1\n        /* \"#utility.yul\":6749:6751   */\n      0x40\n        /* \"#utility.yul\":6742:6764   */\n      mstore\n        /* \"#utility.yul\":6532:6770   */\n      pop\n        /* \"#utility.yul\":6489:6770   */\n      pop\n      pop\n      jump\t// out\n        /* \"#utility.yul\":6776:6905   */\n    tag_143:\n        /* \"#utility.yul\":6810:6816   */\n      0x00\n        /* \"#utility.yul\":6837:6857   */\n      tag_232\n      tag_117\n      jump\t// in\n    tag_232:\n        /* \"#utility.yul\":6827:6857   */\n      swap1\n      pop\n        /* \"#utility.yul\":6866:6899   */\n      tag_233\n        /* \"#utility.yul\":6894:6898   */\n      dup3\n        /* \"#utility.yul\":6886:6892   */\n      dup3\n        /* \"#utility.yul\":6866:6899   */\n      tag_142\n      jump\t// in\n    tag_233:\n        /* \"#utility.yul\":6776:6905   */\n      swap2\n      swap1\n      pop\n      jump\t// out\n        /* \"#utility.yul\":6911:7219   */\n    tag_144:\n        /* \"#utility.yul\":6973:6977   */\n      0x00\n        /* \"#utility.yul\":7063:7081   */\n      0xffffffffffffffff\n        /* \"#utility.yul\":7055:7061   */\n      dup3\n        /* \"#utility.yul\":7052:7082   */\n      gt\n        /* \"#utility.yul\":7049:7105   */\n      iszero\n      tag_235\n      jumpi\n        /* \"#utility.yul\":7085:7103   */\n      tag_236\n      tag_141\n      jump\t// in\n    tag_236:\n        /* \"#utility.yul\":7049:7105   */\n    tag_235:\n        /* \"#utility.yul\":7123:7152   */\n      tag_237\n        /* \"#utility.yul\":7145:7151   */\n      dup3\n        /* \"#utility.yul\":7123:7152   */\n      tag_133\n      jump\t// in\n    tag_237:\n        /* \"#utility.yul\":7115:7152   */\n      swap1\n      pop\n        /* \"#utility.yul\":7207:7211   */\n      0x20\n        /* \"#utility.yul\":7201:7205   */\n      dup2\n        /* \"#utility.yul\":7197:7212   */\n      add\n        /* \"#utility.yul\":7189:7212   */\n      swap1\n      pop\n        /* \"#utility.yul\":6911:7219   */\n      swap2\n      swap1\n      pop\n      jump\t// out\n        /* \"#utility.yul\":7225:7373   */\n    tag_145:\n        /* \"#utility.yul\":7323:7329   */\n      dup3\n        /* \"#utility.yul\":7318:7321   */\n      dup2\n        /* \"#utility.yul\":7313:7316   */\n      dup4\n        /* \"#utility.yul\":7300:7330   */\n      calldatacopy\n        /* \"#utility.yul\":7364:7365   */\n      0x00\n        /* \"#utility.yul\":7355:7361   */\n      dup4\n        /* \"#utility.yul\":7350:7353   */\n      dup4\n        /* \"#utility.yul\":7346:7362   */\n      add\n        /* \"#utility.yul\":7339:7366   */\n      mstore\n        /* \"#utility.yul\":7225:7373   */\n      pop\n      pop\n      pop\n      jump\t// out\n        /* \"#utility.yul\":7379:7804   */\n    tag_146:\n        /* \"#utility.yul\":7457:7462   */\n      0x00\n        /* \"#utility.yul\":7482:7548   */\n      tag_240\n        /* \"#utility.yul\":7498:7547   */\n      tag_241\n        /* \"#utility.yul\":7540:7546   */\n      dup5\n        /* \"#utility.yul\":7498:7547   */\n      tag_144\n      jump\t// in\n    tag_241:\n        /* \"#utility.yul\":7482:7548   */\n      tag_143\n      jump\t// in\n    tag_240:\n        /* \"#utility.yul\":7473:7548   */\n      swap1\n      pop\n        /* \"#utility.yul\":7571:7577   */\n      dup3\n        /* \"#utility.yul\":7564:7569   */\n      dup2\n        /* \"#utility.yul\":7557:7578   */\n      mstore\n        /* \"#utility.yul\":7609:7613   */\n      0x20\n        /* \"#utility.yul\":7602:7607   */\n      dup2\n        /* \"#utility.yul\":7598:7614   */\n      add\n        /* \"#utility.yul\":7647:7650   */\n      dup5\n        /* \"#utility.yul\":7638:7644   */\n      dup5\n        /* \"#utility.yul\":7633:7636   */\n      dup5\n        /* \"#utility.yul\":7629:7645   */\n      add\n        /* \"#utility.yul\":7626:7651   */\n      gt\n        /* \"#utility.yul\":7623:7735   */\n      iszero\n      tag_242\n      jumpi\n        /* \"#utility.yul\":7654:7733   */\n      tag_243\n      tag_140\n      jump\t// in\n    tag_243:\n        /* \"#utility.yul\":7623:7735   */\n    tag_242:\n        /* \"#utility.yul\":7744:7798   */\n      tag_244\n        /* \"#utility.yul\":7791:7797   */\n      dup5\n        /* \"#utility.yul\":7786:7789   */\n      dup3\n        /* \"#utility.yul\":7781:7784   */\n      dup6\n        /* \"#utility.yul\":7744:7798   */\n      tag_145\n      jump\t// in\n    tag_244:\n        /* \"#utility.yul\":7463:7804   */\n      pop\n        /* \"#utility.yul\":7379:7804   */\n      swap4\n      swap3\n      pop\n      pop\n      pop\n      jump\t// out\n        /* \"#utility.yul\":7824:8164   */\n    tag_147:\n        /* \"#utility.yul\":7880:7885   */\n      0x00\n        /* \"#utility.yul\":7929:7932   */\n      dup3\n        /* \"#utility.yul\":7922:7926   */\n      0x1f\n        /* \"#utility.yul\":7914:7920   */\n      dup4\n        /* \"#utility.yul\":7910:7927   */\n      add\n        /* \"#utility.yul\":7906:7933   */\n      slt\n        /* \"#utility.yul\":7896:8018   */\n      tag_246\n      jumpi\n        /* \"#utility.yul\":7937:8016   */\n      tag_247\n      tag_139\n      jump\t// in\n    tag_247:\n        /* \"#utility.yul\":7896:8018   */\n    tag_246:\n        /* \"#utility.yul\":8054:8060   */\n      dup2\n        /* \"#utility.yul\":8041:8061   */\n      calldataload\n        /* \"#utility.yul\":8079:8158   */\n      tag_248\n        /* \"#utility.yul\":8154:8157   */\n      dup5\n        /* \"#utility.yul\":8146:8152   */\n      dup3\n        /* \"#utility.yul\":8139:8143   */\n      0x20\n        /* \"#utility.yul\":8131:8137   */\n      dup7\n        /* \"#utility.yul\":8127:8144   */\n      add\n        /* \"#utility.yul\":8079:8158   */\n      tag_146\n      jump\t// in\n    tag_248:\n        /* \"#utility.yul\":8070:8158   */\n      swap2\n      pop\n        /* \"#utility.yul\":7886:8164   */\n      pop\n        /* \"#utility.yul\":7824:8164   */\n      swap3\n      swap2\n      pop\n      pop\n      jump\t// out\n        /* \"#utility.yul\":8170:8840   */\n    tag_31:\n        /* \"#utility.yul\":8256:8262   */\n      0x00\n        /* \"#utility.yul\":8264:8270   */\n      dup1\n        /* \"#utility.yul\":8313:8315   */\n      0x40\n        /* \"#utility.yul\":8301:8310   */\n      dup4\n        /* \"#utility.yul\":8292:8299   */\n      dup6\n        /* \"#utility.yul\":8288:8311   */\n      sub\n        /* \"#utility.yul\":8284:8316   */\n      slt\n        /* \"#utility.yul\":8281:8400   */\n      iszero\n      tag_250\n      jumpi\n        /* \"#utility.yul\":8319:8398   */\n      tag_251\n      tag_118\n      jump\t// in\n    tag_251:\n        /* \"#utility.yul\":8281:8400   */\n    tag_250:\n        /* \"#utility.yul\":8439:8440   */\n      0x00\n        /* \"#utility.yul\":8464:8525   */\n      tag_252\n        /* \"#utility.yul\":8517:8524   */\n      dup6\n        /* \"#utility.yul\":8508:8514   */\n      dup3\n        /* \"#utility.yul\":8497:8506   */\n      dup7\n        /* \"#utility.yul\":8493:8515   */\n      add\n        /* \"#utility.yul\":8464:8525   */\n      tag_123\n      jump\t// in\n    tag_252:\n        /* \"#utility.yul\":8454:8525   */\n      swap3\n      pop\n        /* \"#utility.yul\":8410:8535   */\n      pop\n        /* \"#utility.yul\":8602:8604   */\n      0x20\n        /* \"#utility.yul\":8591:8600   */\n      dup4\n        /* \"#utility.yul\":8587:8605   */\n      add\n        /* \"#utility.yul\":8574:8606   */\n      calldataload\n        /* \"#utility.yul\":8633:8651   */\n      0xffffffffffffffff\n        /* \"#utility.yul\":8625:8631   */\n      dup2\n        /* \"#utility.yul\":8622:8652   */\n      gt\n        /* \"#utility.yul\":8619:8736   */\n      iszero\n      tag_253\n      jumpi\n        /* \"#utility.yul\":8655:8734   */\n      tag_254\n      tag_119\n      jump\t// in\n    tag_254:\n        /* \"#utility.yul\":8619:8736   */\n    tag_253:\n        /* \"#utility.yul\":8760:8823   */\n      tag_255\n        /* \"#utility.yul\":8815:8822   */\n      dup6\n        /* \"#utility.yul\":8806:8812   */\n      dup3\n        /* \"#utility.yul\":8795:8804   */\n      dup7\n        /* \"#utility.yul\":8791:8813   */\n      add\n        /* \"#utility.yul\":8760:8823   */\n      tag_147\n      jump\t// in\n    tag_255:\n        /* \"#utility.yul\":8750:8823   */\n      swap2\n      pop\n        /* \"#utility.yul\":8545:8833   */\n      pop\n        /* \"#utility.yul\":8170:8840   */\n      swap3\n      pop\n      swap3\n      swap1\n      pop\n      jump\t// out\n        /* \"#utility.yul\":8846:9026   */\n    tag_40:\n        /* \"#utility.yul\":8894:8971   */\n      0x4e487b7100000000000000000000000000000000000000000000000000000000\n        /* \"#utility.yul\":8891:8892   */\n      0x00\n        /* \"#utility.yul\":8884:8972   */\n      mstore\n        /* \"#utility.yul\":8991:8995   */\n      0x32\n        /* \"#utility.yul\":8988:8989   */\n      0x04\n        /* \"#utility.yul\":8981:8996   */\n      mstore\n        /* \"#utility.yul\":9015:9019   */\n      0x24\n        /* \"#utility.yul\":9012:9013   */\n      0x00\n        /* \"#utility.yul\":9005:9020   */\n      revert\n        /* \"#utility.yul\":9032:9212   */\n    tag_148:\n        /* \"#utility.yul\":9080:9157   */\n      0x4e487b7100000000000000000000000000000000000000000000000000000000\n        /* \"#utility.yul\":9077:9078   */\n      0x00\n        /* \"#utility.yul\":9070:9158   */\n      mstore\n        /* \"#utility.yul\":9177:9181   */\n      0x11\n        /* \"#utility.yul\":9174:9175   */\n      0x04\n        /* \"#utility.yul\":9167:9182   */\n      mstore\n        /* \"#utility.yul\":9201:9205   */\n      0x24\n        /* \"#utility.yul\":9198:9199   */\n      0x00\n        /* \"#utility.yul\":9191:9206   */\n      revert\n        /* \"#utility.yul\":9218:9412   */\n    tag_47:\n        /* \"#utility.yul\":9258:9262   */\n      0x00\n        /* \"#utility.yul\":9278:9298   */\n      tag_259\n        /* \"#utility.yul\":9296:9297   */\n      dup3\n        /* \"#utility.yul\":9278:9298   */\n      tag_124\n      jump\t// in\n    tag_259:\n        /* \"#utility.yul\":9273:9298   */\n      swap2\n      pop\n        /* \"#utility.yul\":9312:9332   */\n      tag_260\n        /* \"#utility.yul\":9330:9331   */\n      dup4\n        /* \"#utility.yul\":9312:9332   */\n      tag_124\n      jump\t// in\n    tag_260:\n        /* \"#utility.yul\":9307:9332   */\n      swap3\n      pop\n        /* \"#utility.yul\":9356:9357   */\n      dup3\n        /* \"#utility.yul\":9353:9354   */\n      dup3\n        /* \"#utility.yul\":9349:9358   */\n      sub\n        /* \"#utility.yul\":9341:9358   */\n      swap1\n      pop\n        /* \"#utility.yul\":9380:9381   */\n      dup2\n        /* \"#utility.yul\":9374:9378   */\n      dup2\n        /* \"#utility.yul\":9371:9382   */\n      gt\n        /* \"#utility.yul\":9368:9405   */\n      iszero\n      tag_261\n      jumpi\n        /* \"#utility.yul\":9385:9403   */\n      tag_262\n      tag_148\n      jump\t// in\n    tag_262:\n        /* \"#utility.yul\":9368:9405   */\n    tag_261:\n        /* \"#utility.yul\":9218:9412   */\n      swap3\n      swap2\n      pop\n      pop\n      jump\t// out\n        /* \"#utility.yul\":9418:9609   */\n    tag_49:\n        /* \"#utility.yul\":9458:9461   */\n      0x00\n        /* \"#utility.yul\":9477:9497   */\n      tag_264\n        /* \"#utility.yul\":9495:9496   */\n      dup3\n        /* \"#utility.yul\":9477:9497   */\n      tag_124\n      jump\t// in\n    tag_264:\n        /* \"#utility.yul\":9472:9497   */\n      swap2\n      pop\n        /* \"#utility.yul\":9511:9531   */\n      tag_265\n        /* \"#utility.yul\":9529:9530   */\n      dup4\n        /* \"#utility.yul\":9511:9531   */\n      tag_124\n      jump\t// in\n    tag_265:\n        /* \"#utility.yul\":9506:9531   */\n      swap3\n      pop\n        /* \"#utility.yul\":9554:9555   */\n      dup3\n        /* \"#utility.yul\":9551:9552   */\n      dup3\n        /* \"#utility.yul\":9547:9556   */\n      add\n        /* \"#utility.yul\":9540:9556   */\n      swap1\n      pop\n        /* \"#utility.yul\":9575:9578   */\n      dup1\n        /* \"#utility.yul\":9572:9573   */\n      dup3\n        /* \"#utility.yul\":9569:9579   */\n      gt\n        /* \"#utility.yul\":9566:9602   */\n      iszero\n      tag_266\n      jumpi\n        /* \"#utility.yul\":9582:9600   */\n      tag_267\n      tag_148\n      jump\t// in\n    tag_267:\n        /* \"#utility.yul\":9566:9602   */\n    tag_266:\n        /* \"#utility.yul\":9418:9609   */\n      swap3\n      swap2\n      pop\n      pop\n      jump\t// out\n        /* \"#utility.yul\":9615:9795   */\n    tag_149:\n        /* \"#utility.yul\":9663:9740   */\n      0x4e487b7100000000000000000000000000000000000000000000000000000000\n        /* \"#utility.yul\":9660:9661   */\n      0x00\n        /* \"#utility.yul\":9653:9741   */\n      mstore\n        /* \"#utility.yul\":9760:9764   */\n      0x22\n        /* \"#utility.yul\":9757:9758   */\n      0x04\n        /* \"#utility.yul\":9750:9765   */\n      mstore\n        /* \"#utility.yul\":9784:9788   */\n      0x24\n        /* \"#utility.yul\":9781:9782   */\n      0x00\n        /* \"#utility.yul\":9774:9789   */\n      revert\n        /* \"#utility.yul\":9801:10121   */\n    tag_86:\n        /* \"#utility.yul\":9845:9851   */\n      0x00\n        /* \"#utility.yul\":9882:9883   */\n      0x02\n        /* \"#utility.yul\":9876:9880   */\n      dup3\n        /* \"#utility.yul\":9872:9884   */\n      div\n        /* \"#utility.yul\":9862:9884   */\n      swap1\n      pop\n        /* \"#utility.yul\":9929:9930   */\n      0x01\n        /* \"#utility.yul\":9923:9927   */\n      dup3\n        /* \"#utility.yul\":9919:9931   */\n      and\n        /* \"#utility.yul\":9950:9968   */\n      dup1\n        /* \"#utility.yul\":9940:10021   */\n      tag_270\n      jumpi\n        /* \"#utility.yul\":10006:10010   */\n      0x7f\n        /* \"#utility.yul\":9998:10004   */\n      dup3\n        /* \"#utility.yul\":9994:10011   */\n      and\n        /* \"#utility.yul\":9984:10011   */\n      swap2\n      pop\n        /* \"#utility.yul\":9940:10021   */\n    tag_270:\n        /* \"#utility.yul\":10068:10070   */\n      0x20\n        /* \"#utility.yul\":10060:10066   */\n      dup3\n        /* \"#utility.yul\":10057:10071   */\n      lt\n        /* \"#utility.yul\":10037:10055   */\n      dup2\n        /* \"#utility.yul\":10034:10072   */\n      sub\n        /* \"#utility.yul\":10031:10115   */\n      tag_271\n      jumpi\n        /* \"#utility.yul\":10087:10105   */\n      tag_272\n      tag_149\n      jump\t// in\n    tag_272:\n        /* \"#utility.yul\":10031:10115   */\n    tag_271:\n        /* \"#utility.yul\":9852:10121   */\n      pop\n        /* \"#utility.yul\":9801:10121   */\n      swap2\n      swap1\n      pop\n      jump\t// out\n        /* \"#utility.yul\":10127:10276   */\n    tag_150:\n        /* \"#utility.yul\":10176:10182   */\n      0x00\n        /* \"#utility.yul\":10210:10215   */\n      dup2\n        /* \"#utility.yul\":10204:10216   */\n      sload\n        /* \"#utility.yul\":10194:10216   */\n      swap1\n      pop\n        /* \"#utility.yul\":10236:10269   */\n      tag_274\n        /* \"#utility.yul\":10262:10268   */\n      dup2\n        /* \"#utility.yul\":10236:10269   */\n      tag_86\n      jump\t// in\n    tag_274:\n        /* \"#utility.yul\":10226:10269   */\n      swap1\n      pop\n        /* \"#utility.yul\":10127:10276   */\n      swap2\n      swap1\n      pop\n      jump\t// out\n        /* \"#utility.yul\":10282:10423   */\n    tag_151:\n        /* \"#utility.yul\":10331:10335   */\n      0x00\n        /* \"#utility.yul\":10354:10357   */\n      dup2\n        /* \"#utility.yul\":10346:10357   */\n      swap1\n      pop\n        /* \"#utility.yul\":10377:10380   */\n      dup2\n        /* \"#utility.yul\":10374:10375   */\n      0x00\n        /* \"#utility.yul\":10367:10381   */\n      mstore\n        /* \"#utility.yul\":10411:10415   */\n      0x20\n        /* \"#utility.yul\":10408:10409   */\n      0x00\n        /* \"#utility.yul\":10398:10416   */\n      keccak256\n        /* \"#utility.yul\":10390:10416   */\n      swap1\n      pop\n        /* \"#utility.yul\":10282:10423   */\n      swap2\n      swap1\n      pop\n      jump\t// out\n        /* \"#utility.yul\":10429:10522   */\n    tag_152:\n        /* \"#utility.yul\":10466:10472   */\n      0x00\n        /* \"#utility.yul\":10513:10515   */\n      0x20\n        /* \"#utility.yul\":10508:10510   */\n      0x1f\n        /* \"#utility.yul\":10501:10506   */\n      dup4\n        /* \"#utility.yul\":10497:10511   */\n      add\n        /* \"#utility.yul\":10493:10516   */\n      div\n        /* \"#utility.yul\":10483:10516   */\n      swap1\n      pop\n        /* \"#utility.yul\":10429:10522   */\n      swap2\n      swap1\n      pop\n      jump\t// out\n        /* \"#utility.yul\":10528:10635   */\n    tag_153:\n        /* \"#utility.yul\":10572:10580   */\n      0x00\n        /* \"#utility.yul\":10622:10627   */\n      dup3\n        /* \"#utility.yul\":10616:10620   */\n      dup3\n        /* \"#utility.yul\":10612:10628   */\n      shl\n        /* \"#utility.yul\":10591:10628   */\n      swap1\n      pop\n        /* \"#utility.yul\":10528:10635   */\n      swap3\n      swap2\n      pop\n      pop\n      jump\t// out\n        /* \"#utility.yul\":10641:11034   */\n    tag_154:\n        /* \"#utility.yul\":10710:10716   */\n      0x00\n        /* \"#utility.yul\":10760:10761   */\n      0x08\n        /* \"#utility.yul\":10748:10758   */\n      dup4\n        /* \"#utility.yul\":10744:10762   */\n      mul\n        /* \"#utility.yul\":10783:10880   */\n      tag_279\n        /* \"#utility.yul\":10813:10879   */\n      0xffffffffffffffffffffffffffffffffffffffffffffffffffffffffffffffff\n        /* \"#utility.yul\":10802:10811   */\n      dup3\n        /* \"#utility.yul\":10783:10880   */\n      tag_153\n      jump\t// in\n    tag_279:\n        /* \"#utility.yul\":10901:10940   */\n      tag_280\n        /* \"#utility.yul\":10931:10939   */\n      dup7\n        /* \"#utility.yul\":10920:10929   */\n      dup4\n        /* \"#utility.yul\":10901:10940   */\n      tag_153\n      jump\t// in\n    tag_280:\n        /* \"#utility.yul\":10889:10940   */\n      swap6\n      pop\n        /* \"#utility.yul\":10973:10977   */\n      dup1\n        /* \"#utility.yul\":10969:10978   */\n      not\n        /* \"#utility.yul\":10962:10967   */\n      dup5\n        /* \"#utility.yul\":10958:10979   */\n      and\n        /* \"#utility.yul\":10949:10979   */\n      swap4\n      pop\n        /* \"#utility.yul\":11022:11026   */\n      dup1\n        /* \"#utility.yul\":11012:11020   */\n      dup7\n        /* \"#utility.yul\":11008:11027   */\n      and\n        /* \"#utility.yul\":11001:11006   */\n      dup5\n        /* \"#utility.yul\":10998:11028   */\n      or\n        /* \"#utility.yul\":10988:11028   */\n      swap3\n      pop\n        /* \"#utility.yul\":10717:11034   */\n      pop\n      pop\n        /* \"#utility.yul\":10641:11034   */\n      swap4\n      swap3\n      pop\n      pop\n      pop\n      jump\t// out\n        /* \"#utility.yul\":11040:11100   */\n    tag_155:\n        /* \"#utility.yul\":11068:11071   */\n      0x00\n        /* \"#utility.yul\":11089:11094   */\n      dup2\n        /* \"#utility.yul\":11082:11094   */\n      swap1\n      pop\n        /* \"#utility.yul\":11040:11100   */\n      swap2\n      swap1\n      pop\n      jump\t// out\n        /* \"#utility.yul\":11106:11248   */\n    tag_156:\n        /* \"#utility.yul\":11156:11165   */\n      0x00\n        /* \"#utility.yul\":11189:11242   */\n      tag_283\n        /* \"#utility.yul\":11207:11241   */\n      tag_284\n        /* \"#utility.yul\":11216:11240   */\n      tag_285\n        /* \"#utility.yul\":11234:11239   */\n      dup5\n        /* \"#utility.yul\":11216:11240   */\n      tag_124\n      jump\t// in\n    tag_285:\n        /* \"#utility.yul\":11207:11241   */\n      tag_155\n      jump\t// in\n    tag_284:\n        /* \"#utility.yul\":11189:11242   */\n      tag_124\n      jump\t// in\n    tag_283:\n        /* \"#utility.yul\":11176:11242   */\n      swap1\n      pop\n        /* \"#utility.yul\":11106:11248   */\n      swap2\n      swap1\n      pop\n      jump\t// out\n        /* \"#utility.yul\":11254:11329   */\n    tag_157:\n        /* \"#utility.yul\":11297:11300   */\n      0x00\n        /* \"#utility.yul\":11318:11323   */\n      dup2\n        /* \"#utility.yul\":11311:11323   */\n      swap1\n      pop\n        /* \"#utility.yul\":11254:11329   */\n      swap2\n      swap1\n      pop\n      jump\t// out\n        /* \"#utility.yul\":11335:11604   */\n    tag_158:\n        /* \"#utility.yul\":11445:11484   */\n      tag_288\n        /* \"#utility.yul\":11476:11483   */\n      dup4\n        /* \"#utility.yul\":11445:11484   */\n      tag_156\n      jump\t// in\n    tag_288:\n        /* \"#utility.yul\":11506:11597   */\n      tag_289\n        /* \"#utility.yul\":11555:11596   */\n      tag_290\n        /* \"#utility.yul\":11579:11595   */\n      dup3\n        /* \"#utility.yul\":11555:11596   */\n      tag_157\n      jump\t// in\n    tag_290:\n        /* \"#utility.yul\":11547:11553   */\n      dup5\n        /* \"#utility.yul\":11540:11544   */\n      dup5\n        /* \"#utility.yul\":11534:11545   */\n      sload\n        /* \"#utility.yul\":11506:11597   */\n      tag_154\n      jump\t// in\n    tag_289:\n        /* \"#utility.yul\":11500:11504   */\n      dup3\n        /* \"#utility.yul\":11493:11598   */\n      sstore\n        /* \"#utility.yul\":11411:11604   */\n      pop\n        /* \"#utility.yul\":11335:11604   */\n      pop\n      pop\n      pop\n      jump\t// out\n        /* \"#utility.yul\":11610:11683   */\n    tag_159:\n        /* \"#utility.yul\":11655:11658   */\n      0x00\n        /* \"#utility.yul\":11610:11683   */\n      swap1\n      jump\t// out\n        /* \"#utility.yul\":11689:11878   */\n    tag_160:\n        /* \"#utility.yul\":11766:11798   */\n      tag_293\n      tag_159\n      jump\t// in\n    tag_293:\n        /* \"#utility.yul\":11807:11872   */\n      tag_294\n        /* \"#utility.yul\":11865:11871   */\n      dup2\n        /* \"#utility.yul\":11857:11863   */\n      dup5\n        /* \"#utility.yul\":11851:11855   */\n      dup5\n        /* \"#utility.yul\":11807:11872   */\n      tag_158\n      jump\t// in\n    tag_294:\n        /* \"#utility.yul\":11742:11878   */\n      pop\n        /* \"#utility.yul\":11689:11878   */\n      pop\n      pop\n      jump\t// out\n        /* \"#utility.yul\":11884:12070   */\n    tag_161:\n        /* \"#utility.yul\":11944:12064   */\n    tag_296:\n        /* \"#utility.yul\":11961:11964   */\n      dup2\n        /* \"#utility.yul\":11954:11959   */\n      dup2\n        /* \"#utility.yul\":11951:11965   */\n      lt\n        /* \"#utility.yul\":11944:12064   */\n      iszero\n      tag_298\n      jumpi\n        /* \"#utility.yul\":12015:12054   */\n      tag_299\n        /* \"#utility.yul\":12052:12053   */\n      0x00\n        /* \"#utility.yul\":12045:12050   */\n      dup3\n        /* \"#utility.yul\":12015:12054   */\n      tag_160\n      jump\t// in\n    tag_299:\n        /* \"#utility.yul\":11988:11989   */\n      0x01\n        /* \"#utility.yul\":11981:11986   */\n      dup2\n        /* \"#utility.yul\":11977:11990   */\n      add\n        /* \"#utility.yul\":11968:11990   */\n      swap1\n      pop\n        /* \"#utility.yul\":11944:12064   */\n      jump(tag_296)\n    tag_298:\n        /* \"#utility.yul\":11884:12070   */\n      pop\n      pop\n      jump\t// out\n        /* \"#utility.yul\":12076:12619   */\n    tag_162:\n        /* \"#utility.yul\":12177:12179   */\n      0x1f\n        /* \"#utility.yul\":12172:12175   */\n      dup3\n        /* \"#utility.yul\":12169:12180   */\n      gt\n        /* \"#utility.yul\":12166:12612   */\n      iszero\n      tag_301\n      jumpi\n        /* \"#utility.yul\":12211:12249   */\n      tag_302\n        /* \"#utility.yul\":12243:12248   */\n      dup2\n        /* \"#utility.yul\":12211:12249   */\n      tag_151\n      jump\t// in\n    tag_302:\n        /* \"#utility.yul\":12295:12324   */\n      tag_303\n        /* \"#utility.yul\":12313:12323   */\n      dup5\n        /* \"#utility.yul\":12295:12324   */\n      tag_152\n      jump\t// in\n    tag_303:\n        /* \"#utility.yul\":12285:12293   */\n      dup2\n        /* \"#utility.yul\":12281:12325   */\n      add\n        /* \"#utility.yul\":12478:12480   */\n      0x20\n        /* \"#utility.yul\":12466:12476   */\n      dup6\n        /* \"#utility.yul\":12463:12481   */\n      lt\n        /* \"#utility.yul\":12460:12509   */\n      iszero\n      tag_304\n      jumpi\n        /* \"#utility.yul\":12499:12507   */\n      dup2\n        /* \"#utility.yul\":12484:12507   */\n      swap1\n      pop\n        /* \"#utility.yul\":12460:12509   */\n    tag_304:\n        /* \"#utility.yul\":12522:12602   */\n      tag_305\n        /* \"#utility.yul\":12578:12600   */\n      tag_306\n        /* \"#utility.yul\":12596:12599   */\n      dup6\n        /* \"#utility.yul\":12578:12600   */\n      tag_152\n      jump\t// in\n    tag_306:\n        /* \"#utility.yul\":12568:12576   */\n      dup4\n        /* \"#utility.yul\":12564:12601   */\n      add\n        /* \"#utility.yul\":12551:12562   */\n      dup3\n        /* \"#utility.yul\":12522:12602   */\n      tag_161\n      jump\t// in\n    tag_305:\n        /* \"#utility.yul\":12181:12612   */\n      pop\n      pop\n        /* \"#utility.yul\":12166:12612   */\n    tag_301:\n        /* \"#utility.yul\":12076:12619   */\n      pop\n      pop\n      pop\n      jump\t// out\n        /* \"#utility.yul\":12625:12742   */\n    tag_163:\n        /* \"#utility.yul\":12679:12687   */\n      0x00\n        /* \"#utility.yul\":12729:12734   */\n      dup3\n        /* \"#utility.yul\":12723:12727   */\n      dup3\n        /* \"#utility.yul\":12719:12735   */\n      shr\n        /* \"#utility.yul\":12698:12735   */\n      swap1\n      pop\n        /* \"#utility.yul\":12625:12742   */\n      swap3\n      swap2\n      pop\n      pop\n      jump\t// out\n        /* \"#utility.yul\":12748:12917   */\n    tag_164:\n        /* \"#utility.yul\":12792:12798   */\n      0x00\n        /* \"#utility.yul\":12825:12876   */\n      tag_309\n        /* \"#utility.yul\":12873:12874   */\n      0x00\n        /* \"#utility.yul\":12869:12875   */\n      not\n        /* \"#utility.yul\":12861:12866   */\n      dup5\n        /* \"#utility.yul\":12858:12859   */\n      0x08\n        /* \"#utility.yul\":12854:12867   */\n      mul\n        /* \"#utility.yul\":12825:12876   */\n      tag_163\n      jump\t// in\n    tag_309:\n        /* \"#utility.yul\":12821:12877   */\n      not\n        /* \"#utility.yul\":12906:12910   */\n      dup1\n        /* \"#utility.yul\":12900:12904   */\n      dup4\n        /* \"#utility.yul\":12896:12911   */\n      and\n        /* \"#utility.yul\":12886:12911   */\n      swap2\n      pop\n        /* \"#utility.yul\":12799:12917   */\n      pop\n        /* \"#utility.yul\":12748:12917   */\n      swap3\n      swap2\n      pop\n      pop\n      jump\t// out\n        /* \"#utility.yul\":12922:13217   */\n    tag_165:\n        /* \"#utility.yul\":12998:13002   */\n      0x00\n        /* \"#utility.yul\":13144:13173   */\n      tag_311\n        /* \"#utility.yul\":13169:13172   */\n      dup4\n        /* \"#utility.yul\":13163:13167   */\n      dup4\n        /* \"#utility.yul\":13144:13173   */\n      tag_164\n      jump\t// in\n    tag_311:\n        /* \"#utility.yul\":13136:13173   */\n      swap2\n      pop\n        /* \"#utility.yul\":13206:13209   */\n      dup3\n        /* \"#utility.yul\":13203:13204   */\n      0x02\n        /* \"#utility.yul\":13199:13210   */\n      mul\n        /* \"#utility.yul\":13193:13197   */\n      dup3\n        /* \"#utility.yul\":13190:13211   */\n      or\n        /* \"#utility.yul\":13182:13211   */\n      swap1\n      pop\n        /* \"#utility.yul\":12922:13217   */\n      swap3\n      swap2\n      pop\n      pop\n      jump\t// out\n        /* \"#utility.yul\":13222:14673   */\n    tag_57:\n        /* \"#utility.yul\":13333:13336   */\n      dup2\n        /* \"#utility.yul\":13327:13331   */\n      dup2\n        /* \"#utility.yul\":13324:13337   */\n      sub\n        /* \"#utility.yul\":13321:13347   */\n      tag_313\n      jumpi\n        /* \"#utility.yul\":13340:13345   */\n      pop\n      pop\n      jump(tag_312)\n        /* \"#utility.yul\":13321:13347   */\n    tag_313:\n        /* \"#utility.yul\":13371:13405   */\n      tag_314\n        /* \"#utility.yul\":13401:13404   */\n      dup3\n        /* \"#utility.yul\":13371:13405   */\n      tag_150\n      jump\t// in\n    tag_314:\n        /* \"#utility.yul\":13470:13488   */\n      0xffffffffffffffff\n        /* \"#utility.yul\":13462:13468   */\n      dup2\n        /* \"#utility.yul\":13459:13489   */\n      gt\n        /* \"#utility.yul\":13456:13512   */\n      iszero\n      tag_315\n      jumpi\n        /* \"#utility.yul\":13492:13510   */\n      tag_316\n      tag_141\n      jump\t// in\n    tag_316:\n        /* \"#utility.yul\":13456:13512   */\n    tag_315:\n        /* \"#utility.yul\":13536:13574   */\n      tag_317\n        /* \"#utility.yul\":13568:13572   */\n      dup3\n        /* \"#utility.yul\":13562:13573   */\n      sload\n        /* \"#utility.yul\":13536:13574   */\n      tag_86\n      jump\t// in\n    tag_317:\n        /* \"#utility.yul\":13621:13688   */\n      tag_318\n        /* \"#utility.yul\":13681:13687   */\n      dup3\n        /* \"#utility.yul\":13673:13679   */\n      dup3\n        /* \"#utility.yul\":13667:13671   */\n      dup6\n        /* \"#utility.yul\":13621:13688   */\n      tag_162\n      jump\t// in\n    tag_318:\n        /* \"#utility.yul\":13715:13716   */\n      0x00\n        /* \"#utility.yul\":13744:13746   */\n      0x1f\n        /* \"#utility.yul\":13736:13742   */\n      dup4\n        /* \"#utility.yul\":13733:13747   */\n      gt\n        /* \"#utility.yul\":13761:13762   */\n      0x01\n        /* \"#utility.yul\":13756:14428   */\n      dup2\n      eq\n      tag_320\n      jumpi\n        /* \"#utility.yul\":14472:14473   */\n      0x00\n        /* \"#utility.yul\":14489:14495   */\n      dup5\n        /* \"#utility.yul\":14486:14563   */\n      iszero\n      tag_321\n      jumpi\n        /* \"#utility.yul\":14538:14547   */\n      dup3\n        /* \"#utility.yul\":14533:14536   */\n      dup8\n        /* \"#utility.yul\":14529:14548   */\n      add\n        /* \"#utility.yul\":14523:14549   */\n      sload\n        /* \"#utility.yul\":14514:14549   */\n      swap1\n      pop\n        /* \"#utility.yul\":14486:14563   */\n    tag_321:\n        /* \"#utility.yul\":14589:14656   */\n      tag_322\n        /* \"#utility.yul\":14649:14655   */\n      dup6\n        /* \"#utility.yul\":14642:14647   */\n      dup3\n        /* \"#utility.yul\":14589:14656   */\n      tag_165\n      jump\t// in\n    tag_322:\n        /* \"#utility.yul\":14583:14587   */\n      dup7\n        /* \"#utility.yul\":14576:14657   */\n      sstore\n        /* \"#utility.yul\":14445:14667   */\n      pop\n        /* \"#utility.yul\":13726:14667   */\n      jump(tag_319)\n        /* \"#utility.yul\":13756:14428   */\n    tag_320:\n        /* \"#utility.yul\":13808:13812   */\n      0x1f\n        /* \"#utility.yul\":13804:13813   */\n      not\n        /* \"#utility.yul\":13796:13802   */\n      dup5\n        /* \"#utility.yul\":13792:13814   */\n      and\n        /* \"#utility.yul\":13834:13870   */\n      tag_323\n        /* \"#utility.yul\":13866:13869   */\n      dup8\n        /* \"#utility.yul\":13834:13870   */\n      tag_151\n      jump\t// in\n    tag_323:\n        /* \"#utility.yul\":13827:13870   */\n      swap7\n      pop\n        /* \"#utility.yul\":13897:13934   */\n      tag_324\n        /* \"#utility.yul\":13929:13933   */\n      dup7\n        /* \"#utility.yul\":13897:13934   */\n      tag_151\n      jump\t// in\n    tag_324:\n        /* \"#utility.yul\":13956:13957   */\n      0x00\n        /* \"#utility.yul\":13970:14177   */\n    tag_325:\n        /* \"#utility.yul\":13984:13991   */\n      dup3\n        /* \"#utility.yul\":13981:13982   */\n      dup2\n        /* \"#utility.yul\":13978:13992   */\n      lt\n        /* \"#utility.yul\":13970:14177   */\n      iszero\n      tag_327\n      jumpi\n        /* \"#utility.yul\":14063:14072   */\n      dup5\n        /* \"#utility.yul\":14058:14061   */\n      dup10\n        /* \"#utility.yul\":14054:14073   */\n      add\n        /* \"#utility.yul\":14048:14074   */\n      sload\n        /* \"#utility.yul\":14040:14046   */\n      dup3\n        /* \"#utility.yul\":14033:14075   */\n      sstore\n        /* \"#utility.yul\":14114:14115   */\n      0x01\n        /* \"#utility.yul\":14106:14112   */\n      dup3\n        /* \"#utility.yul\":14102:14116   */\n      add\n        /* \"#utility.yul\":14092:14116   */\n      swap2\n      pop\n        /* \"#utility.yul\":14161:14162   */\n      0x01\n        /* \"#utility.yul\":14150:14159   */\n      dup6\n        /* \"#utility.yul\":14146:14163   */\n      add\n        /* \"#utility.yul\":14133:14163   */\n      swap5\n      pop\n        /* \"#utility.yul\":14007:14011   */\n      0x20\n        /* \"#utility.yul\":14004:14005   */\n      dup2\n        /* \"#utility.yul\":14000:14012   */\n      add\n        /* \"#utility.yul\":13995:14012   */\n      swap1\n      pop\n        /* \"#utility.yul\":13970:14177   */\n      jump(tag_325)\n    tag_327:\n        /* \"#utility.yul\":14205:14211   */\n      dup7\n        /* \"#utility.yul\":14196:14203   */\n      dup4\n        /* \"#utility.yul\":14193:14212   */\n      lt\n        /* \"#utility.yul\":14190:14369   */\n      iszero\n      tag_328\n      jumpi\n        /* \"#utility.yul\":14263:14272   */\n      dup5\n        /* \"#utility.yul\":14258:14261   */\n      dup10\n        /* \"#utility.yul\":14254:14273   */\n      add\n        /* \"#utility.yul\":14248:14274   */\n      sload\n        /* \"#utility.yul\":14306:14354   */\n      tag_329\n        /* \"#utility.yul\":14348:14352   */\n      0x1f\n        /* \"#utility.yul\":14340:14346   */\n      dup10\n        /* \"#utility.yul\":14336:14353   */\n      and\n        /* \"#utility.yul\":14325:14334   */\n      dup3\n        /* \"#utility.yul\":14306:14354   */\n      tag_164\n      jump\t// in\n    tag_329:\n        /* \"#utility.yul\":14298:14304   */\n      dup4\n        /* \"#utility.yul\":14291:14355   */\n      sstore\n        /* \"#utility.yul\":14213:14369   */\n      pop\n        /* \"#utility.yul\":14190:14369   */\n    tag_328:\n        /* \"#utility.yul\":14415:14416   */\n      0x01\n        /* \"#utility.yul\":14411:14412   */\n      0x02\n        /* \"#utility.yul\":14403:14409   */\n      dup9\n        /* \"#utility.yul\":14399:14413   */\n      mul\n        /* \"#utility.yul\":14395:14417   */\n      add\n        /* \"#utility.yul\":14389:14393   */\n      dup9\n        /* \"#utility.yul\":14382:14418   */\n      sstore\n        /* \"#utility.yul\":13763:14428   */\n      pop\n      pop\n      pop\n        /* \"#utility.yul\":13726:14667   */\n    tag_319:\n      pop\n        /* \"#utility.yul\":13311:14673   */\n      pop\n      pop\n      pop\n        /* \"#utility.yul\":13222:14673   */\n      pop\n      pop\n    tag_312:\n      jump\t// out\n        /* \"#utility.yul\":14679:14859   */\n    tag_60:\n        /* \"#utility.yul\":14727:14804   */\n      0x4e487b7100000000000000000000000000000000000000000000000000000000\n        /* \"#utility.yul\":14724:14725   */\n      0x00\n        /* \"#utility.yul\":14717:14805   */\n      mstore\n        /* \"#utility.yul\":14824:14828   */\n      0x31\n        /* \"#utility.yul\":14821:14822   */\n      0x04\n        /* \"#utility.yul\":14814:14829   */\n      mstore\n        /* \"#utility.yul\":14848:14852   */\n      0x24\n        /* \"#utility.yul\":14845:14846   */\n      0x00\n        /* \"#utility.yul\":14838:14853   */\n      revert\n        /* \"#utility.yul\":14865:15034   */\n    tag_166:\n        /* \"#utility.yul\":14949:14960   */\n      0x00\n        /* \"#utility.yul\":14983:14989   */\n      dup3\n        /* \"#utility.yul\":14978:14981   */\n      dup3\n        /* \"#utility.yul\":14971:14990   */\n      mstore\n        /* \"#utility.yul\":15023:15027   */\n      0x20\n        /* \"#utility.yul\":15018:15021   */\n      dup3\n        /* \"#utility.yul\":15014:15028   */\n      add\n        /* \"#utility.yul\":14999:15028   */\n      swap1\n      pop\n        /* \"#utility.yul\":14865:15034   */\n      swap3\n      swap2\n      pop\n      pop\n      jump\t// out\n        /* \"#utility.yul\":15040:15263   */\n    tag_167:\n        /* \"#utility.yul\":15180:15214   */\n      0x496e73756666696369656e742062616c616e636520696e2074686520636f6e74\n        /* \"#utility.yul\":15176:15177   */\n      0x00\n        /* \"#utility.yul\":15168:15174   */\n      dup3\n        /* \"#utility.yul\":15164:15178   */\n      add\n        /* \"#utility.yul\":15157:15215   */\n      mstore\n        /* \"#utility.yul\":15249:15255   */\n      0x7261637400000000000000000000000000000000000000000000000000000000\n        /* \"#utility.yul\":15244:15246   */\n      0x20\n        /* \"#utility.yul\":15236:15242   */\n      dup3\n        /* \"#utility.yul\":15232:15247   */\n      add\n        /* \"#utility.yul\":15225:15256   */\n      mstore\n        /* \"#utility.yul\":15040:15263   */\n      pop\n      jump\t// out\n        /* \"#utility.yul\":15269:15635   */\n    tag_168:\n        /* \"#utility.yul\":15411:15414   */\n      0x00\n        /* \"#utility.yul\":15432:15499   */\n      tag_334\n        /* \"#utility.yul\":15496:15498   */\n      0x24\n        /* \"#utility.yul\":15491:15494   */\n      dup4\n        /* \"#utility.yul\":15432:15499   */\n      tag_166\n      jump\t// in\n    tag_334:\n        /* \"#utility.yul\":15425:15499   */\n      swap2\n      pop\n        /* \"#utility.yul\":15508:15601   */\n      tag_335\n        /* \"#utility.yul\":15597:15600   */\n      dup3\n        /* \"#utility.yul\":15508:15601   */\n      tag_167\n      jump\t// in\n    tag_335:\n        /* \"#utility.yul\":15626:15628   */\n      0x40\n        /* \"#utility.yul\":15621:15624   */\n      dup3\n        /* \"#utility.yul\":15617:15629   */\n      add\n        /* \"#utility.yul\":15610:15629   */\n      swap1\n      pop\n        /* \"#utility.yul\":15269:15635   */\n      swap2\n      swap1\n      pop\n      jump\t// out\n        /* \"#utility.yul\":15641:16060   */\n    tag_67:\n        /* \"#utility.yul\":15807:15811   */\n      0x00\n        /* \"#utility.yul\":15845:15847   */\n      0x20\n        /* \"#utility.yul\":15834:15843   */\n      dup3\n        /* \"#utility.yul\":15830:15848   */\n      add\n        /* \"#utility.yul\":15822:15848   */\n      swap1\n      pop\n        /* \"#utility.yul\":15894:15903   */\n      dup2\n        /* \"#utility.yul\":15888:15892   */\n      dup2\n        /* \"#utility.yul\":15884:15904   */\n      sub\n        /* \"#utility.yul\":15880:15881   */\n      0x00\n        /* \"#utility.yul\":15869:15878   */\n      dup4\n        /* \"#utility.yul\":15865:15882   */\n      add\n        /* \"#utility.yul\":15858:15905   */\n      mstore\n        /* \"#utility.yul\":15922:16053   */\n      tag_337\n        /* \"#utility.yul\":16048:16052   */\n      dup2\n        /* \"#utility.yul\":15922:16053   */\n      tag_168\n      jump\t// in\n    tag_337:\n        /* \"#utility.yul\":15914:16053   */\n      swap1\n      pop\n        /* \"#utility.yul\":15641:16060   */\n      swap2\n      swap1\n      pop\n      jump\t// out\n        /* \"#utility.yul\":16066:16246   */\n    tag_169:\n        /* \"#utility.yul\":16114:16191   */\n      0x4e487b7100000000000000000000000000000000000000000000000000000000\n        /* \"#utility.yul\":16111:16112   */\n      0x00\n        /* \"#utility.yul\":16104:16192   */\n      mstore\n        /* \"#utility.yul\":16211:16215   */\n      0x12\n        /* \"#utility.yul\":16208:16209   */\n      0x04\n        /* \"#utility.yul\":16201:16216   */\n      mstore\n        /* \"#utility.yul\":16235:16239   */\n      0x24\n        /* \"#utility.yul\":16232:16233   */\n      0x00\n        /* \"#utility.yul\":16225:16240   */\n      revert\n        /* \"#utility.yul\":16252:16437   */\n    tag_70:\n        /* \"#utility.yul\":16292:16293   */\n      0x00\n        /* \"#utility.yul\":16309:16329   */\n      tag_340\n        /* \"#utility.yul\":16327:16328   */\n      dup3\n        /* \"#utility.yul\":16309:16329   */\n      tag_124\n      jump\t// in\n    tag_340:\n        /* \"#utility.yul\":16304:16329   */\n      swap2\n      pop\n        /* \"#utility.yul\":16343:16363   */\n      tag_341\n        /* \"#utility.yul\":16361:16362   */\n      dup4\n        /* \"#utility.yul\":16343:16363   */\n      tag_124\n      jump\t// in\n    tag_341:\n        /* \"#utility.yul\":16338:16363   */\n      swap3\n      pop\n        /* \"#utility.yul\":16382:16383   */\n      dup3\n        /* \"#utility.yul\":16372:16407   */\n      tag_342\n      jumpi\n        /* \"#utility.yul\":16387:16405   */\n      tag_343\n      tag_169\n      jump\t// in\n    tag_343:\n        /* \"#utility.yul\":16372:16407   */\n    tag_342:\n        /* \"#utility.yul\":16429:16430   */\n      dup3\n        /* \"#utility.yul\":16426:16427   */\n      dup3\n        /* \"#utility.yul\":16422:16431   */\n      div\n        /* \"#utility.yul\":16417:16431   */\n      swap1\n      pop\n        /* \"#utility.yul\":16252:16437   */\n      swap3\n      swap2\n      pop\n      pop\n      jump\t// out\n        /* \"#utility.yul\":16443:16667   */\n    tag_170:\n        /* \"#utility.yul\":16583:16617   */\n      0x4f6e6c7920746865206f776e65722063616e2063616c6c20746869732066756e\n        /* \"#utility.yul\":16579:16580   */\n      0x00\n        /* \"#utility.yul\":16571:16577   */\n      dup3\n        /* \"#utility.yul\":16567:16581   */\n      add\n        /* \"#utility.yul\":16560:16618   */\n      mstore\n        /* \"#utility.yul\":16652:16659   */\n      0x6374696f6e000000000000000000000000000000000000000000000000000000\n        /* \"#utility.yul\":16647:16649   */\n      0x20\n        /* \"#utility.yul\":16639:16645   */\n      dup3\n        /* \"#utility.yul\":16635:16650   */\n      add\n        /* \"#utility.yul\":16628:16660   */\n      mstore\n        /* \"#utility.yul\":16443:16667   */\n      pop\n      jump\t// out\n        /* \"#utility.yul\":16673:17039   */\n    tag_171:\n        /* \"#utility.yul\":16815:16818   */\n      0x00\n        /* \"#utility.yul\":16836:16903   */\n      tag_346\n        /* \"#utility.yul\":16900:16902   */\n      0x25\n        /* \"#utility.yul\":16895:16898   */\n      dup4\n        /* \"#utility.yul\":16836:16903   */\n      tag_166\n      jump\t// in\n    tag_346:\n        /* \"#utility.yul\":16829:16903   */\n      swap2\n      pop\n        /* \"#utility.yul\":16912:17005   */\n      tag_347\n        /* \"#utility.yul\":17001:17004   */\n      dup3\n        /* \"#utility.yul\":16912:17005   */\n      tag_170\n      jump\t// in\n    tag_347:\n        /* \"#utility.yul\":17030:17032   */\n      0x40\n        /* \"#utility.yul\":17025:17028   */\n      dup3\n        /* \"#utility.yul\":17021:17033   */\n      add\n        /* \"#utility.yul\":17014:17033   */\n      swap1\n      pop\n        /* \"#utility.yul\":16673:17039   */\n      swap2\n      swap1\n      pop\n      jump\t// out\n        /* \"#utility.yul\":17045:17464   */\n    tag_94:\n        /* \"#utility.yul\":17211:17215   */\n      0x00\n        /* \"#utility.yul\":17249:17251   */\n      0x20\n        /* \"#utility.yul\":17238:17247   */\n      dup3\n        /* \"#utility.yul\":17234:17252   */\n      add\n        /* \"#utility.yul\":17226:17252   */\n      swap1\n      pop\n        /* \"#utility.yul\":17298:17307   */\n      dup2\n        /* \"#utility.yul\":17292:17296   */\n      dup2\n        /* \"#utility.yul\":17288:17308   */\n      sub\n        /* \"#utility.yul\":17284:17285   */\n      0x00\n        /* \"#utility.yul\":17273:17282   */\n      dup4\n        /* \"#utility.yul\":17269:17286   */\n      add\n        /* \"#utility.yul\":17262:17309   */\n      mstore\n        /* \"#utility.yul\":17326:17457   */\n      tag_349\n        /* \"#utility.yul\":17452:17456   */\n      dup2\n        /* \"#utility.yul\":17326:17457   */\n      tag_171\n      jump\t// in\n    tag_349:\n        /* \"#utility.yul\":17318:17457   */\n      swap1\n      pop\n        /* \"#utility.yul\":17045:17464   */\n      swap2\n      swap1\n      pop\n      jump\t// out\n        /* \"#utility.yul\":17470:18865   */\n    tag_106:\n        /* \"#utility.yul\":17587:17624   */\n      tag_351\n        /* \"#utility.yul\":17620:17623   */\n      dup3\n        /* \"#utility.yul\":17587:17624   */\n      tag_130\n      jump\t// in\n    tag_351:\n        /* \"#utility.yul\":17689:17707   */\n      0xffffffffffffffff\n        /* \"#utility.yul\":17681:17687   */\n      dup2\n        /* \"#utility.yul\":17678:17708   */\n      gt\n        /* \"#utility.yul\":17675:17731   */\n      iszero\n      tag_352\n      jumpi\n        /* \"#utility.yul\":17711:17729   */\n      tag_353\n      tag_141\n      jump\t// in\n    tag_353:\n        /* \"#utility.yul\":17675:17731   */\n    tag_352:\n        /* \"#utility.yul\":17755:17793   */\n      tag_354\n        /* \"#utility.yul\":17787:17791   */\n      dup3\n        /* \"#utility.yul\":17781:17792   */\n      sload\n        /* \"#utility.yul\":17755:17793   */\n      tag_86\n      jump\t// in\n    tag_354:\n        /* \"#utility.yul\":17840:17907   */\n      tag_355\n        /* \"#utility.yul\":17900:17906   */\n      dup3\n        /* \"#utility.yul\":17892:17898   */\n      dup3\n        /* \"#utility.yul\":17886:17890   */\n      dup6\n        /* \"#utility.yul\":17840:17907   */\n      tag_162\n      jump\t// in\n    tag_355:\n        /* \"#utility.yul\":17934:17935   */\n      0x00\n        /* \"#utility.yul\":17958:17962   */\n      0x20\n        /* \"#utility.yul\":17945:17962   */\n      swap1\n      pop\n        /* \"#utility.yul\":17990:17992   */\n      0x1f\n        /* \"#utility.yul\":17982:17988   */\n      dup4\n        /* \"#utility.yul\":17979:17993   */\n      gt\n        /* \"#utility.yul\":18007:18008   */\n      0x01\n        /* \"#utility.yul\":18002:18620   */\n      dup2\n      eq\n      tag_357\n      jumpi\n        /* \"#utility.yul\":18664:18665   */\n      0x00\n        /* \"#utility.yul\":18681:18687   */\n      dup5\n        /* \"#utility.yul\":18678:18755   */\n      iszero\n      tag_358\n      jumpi\n        /* \"#utility.yul\":18730:18739   */\n      dup3\n        /* \"#utility.yul\":18725:18728   */\n      dup8\n        /* \"#utility.yul\":18721:18740   */\n      add\n        /* \"#utility.yul\":18715:18741   */\n      mload\n        /* \"#utility.yul\":18706:18741   */\n      swap1\n      pop\n        /* \"#utility.yul\":18678:18755   */\n    tag_358:\n        /* \"#utility.yul\":18781:18848   */\n      tag_359\n        /* \"#utility.yul\":18841:18847   */\n      dup6\n        /* \"#utility.yul\":18834:18839   */\n      dup3\n        /* \"#utility.yul\":18781:18848   */\n      tag_165\n      jump\t// in\n    tag_359:\n        /* \"#utility.yul\":18775:18779   */\n      dup7\n        /* \"#utility.yul\":18768:18849   */\n      sstore\n        /* \"#utility.yul\":18637:18859   */\n      pop\n        /* \"#utility.yul\":17972:18859   */\n      jump(tag_356)\n        /* \"#utility.yul\":18002:18620   */\n    tag_357:\n        /* \"#utility.yul\":18054:18058   */\n      0x1f\n        /* \"#utility.yul\":18050:18059   */\n      not\n        /* \"#utility.yul\":18042:18048   */\n      dup5\n        /* \"#utility.yul\":18038:18060   */\n      and\n        /* \"#utility.yul\":18088:18125   */\n      tag_360\n        /* \"#utility.yul\":18120:18124   */\n      dup7\n        /* \"#utility.yul\":18088:18125   */\n      tag_151\n      jump\t// in\n    tag_360:\n        /* \"#utility.yul\":18147:18148   */\n      0x00\n        /* \"#utility.yul\":18161:18369   */\n    tag_361:\n        /* \"#utility.yul\":18175:18182   */\n      dup3\n        /* \"#utility.yul\":18172:18173   */\n      dup2\n        /* \"#utility.yul\":18169:18183   */\n      lt\n        /* \"#utility.yul\":18161:18369   */\n      iszero\n      tag_363\n      jumpi\n        /* \"#utility.yul\":18254:18263   */\n      dup5\n        /* \"#utility.yul\":18249:18252   */\n      dup10\n        /* \"#utility.yul\":18245:18264   */\n      add\n        /* \"#utility.yul\":18239:18265   */\n      mload\n        /* \"#utility.yul\":18231:18237   */\n      dup3\n        /* \"#utility.yul\":18224:18266   */\n      sstore\n        /* \"#utility.yul\":18305:18306   */\n      0x01\n        /* \"#utility.yul\":18297:18303   */\n      dup3\n        /* \"#utility.yul\":18293:18307   */\n      add\n        /* \"#utility.yul\":18283:18307   */\n      swap2\n      pop\n        /* \"#utility.yul\":18352:18354   */\n      0x20\n        /* \"#utility.yul\":18341:18350   */\n      dup6\n        /* \"#utility.yul\":18337:18355   */\n      add\n        /* \"#utility.yul\":18324:18355   */\n      swap5\n      pop\n        /* \"#utility.yul\":18198:18202   */\n      0x20\n        /* \"#utility.yul\":18195:18196   */\n      dup2\n        /* \"#utility.yul\":18191:18203   */\n      add\n        /* \"#utility.yul\":18186:18203   */\n      swap1\n      pop\n        /* \"#utility.yul\":18161:18369   */\n      jump(tag_361)\n    tag_363:\n        /* \"#utility.yul\":18397:18403   */\n      dup7\n        /* \"#utility.yul\":18388:18395   */\n      dup4\n        /* \"#utility.yul\":18385:18404   */\n      lt\n        /* \"#utility.yul\":18382:18561   */\n      iszero\n      tag_364\n      jumpi\n        /* \"#utility.yul\":18455:18464   */\n      dup5\n        /* \"#utility.yul\":18450:18453   */\n      dup10\n        /* \"#utility.yul\":18446:18465   */\n      add\n        /* \"#utility.yul\":18440:18466   */\n      mload\n        /* \"#utility.yul\":18498:18546   */\n      tag_365\n        /* \"#utility.yul\":18540:18544   */\n      0x1f\n        /* \"#utility.yul\":18532:18538   */\n      dup10\n        /* \"#utility.yul\":18528:18545   */\n      and\n        /* \"#utility.yul\":18517:18526   */\n      dup3\n        /* \"#utility.yul\":18498:18546   */\n      tag_164\n      jump\t// in\n    tag_365:\n        /* \"#utility.yul\":18490:18496   */\n      dup4\n        /* \"#utility.yul\":18483:18547   */\n      sstore\n        /* \"#utility.yul\":18405:18561   */\n      pop\n        /* \"#utility.yul\":18382:18561   */\n    tag_364:\n        /* \"#utility.yul\":18607:18608   */\n      0x01\n        /* \"#utility.yul\":18603:18604   */\n      0x02\n        /* \"#utility.yul\":18595:18601   */\n      dup9\n        /* \"#utility.yul\":18591:18605   */\n      mul\n        /* \"#utility.yul\":18587:18609   */\n      add\n        /* \"#utility.yul\":18581:18585   */\n      dup9\n        /* \"#utility.yul\":18574:18610   */\n      sstore\n        /* \"#utility.yul\":18009:18620   */\n      pop\n      pop\n      pop\n        /* \"#utility.yul\":17972:18859   */\n    tag_356:\n      pop\n        /* \"#utility.yul\":17562:18865   */\n      pop\n      pop\n      pop\n        /* \"#utility.yul\":17470:18865   */\n      pop\n      pop\n      jump\t// out\n\n    auxdata: 0xa26469706673582212209bab23b9c7ec12c22a35c10c7ef19e8eb7069222e38719c9e34848e70023222e64736f6c634300081a0033\n}\n",
				"bytecode": {
					"linkReferences": {},
					"object": "6080604052348015600e575f80fd5b50335f806101000a81548173ffffffffffffffffffffffffffffffffffffffff021916908373ffffffffffffffffffffffffffffffffffffffff1602179055506112098061005b5f395ff3fe608060405260043610610054575f3560e01c80630342da8a146100585780631158609e14610080578063541376c9146100965780637a0397fc146100a05780638ed4d62f146100ca578063ca4622fa146100f4575b5f80fd5b348015610063575f80fd5b5061007e60048036038101906100799190610824565b61011c565b005b34801561008b575f80fd5b50610094610311565b005b61009e6103df565b005b3480156100ab575f80fd5b506100b46103e1565b6040516100c19190610867565b60405180910390f35b3480156100d5575f80fd5b506100de6103e8565b6040516100eb91906109f4565b60405180910390f35b3480156100ff575f80fd5b5061011a60048036038101906101159190610b40565b610528565b005b5f600180549050111561030e575f5b60018054905081101561030c578173ffffffffffffffffffffffffffffffffffffffff166001828154811061016357610162610b9a565b5b905f5260205f2090600202015f015f9054906101000a900473ffffffffffffffffffffffffffffffffffffffff1673ffffffffffffffffffffffffffffffffffffffff16036102ff575f8190505b600180805490506101c29190610bf4565b81101561029c57600180826101d79190610c27565b815481106101e8576101e7610b9a565b5b905f5260205f2090600202016001828154811061020857610207610b9a565b5b905f5260205f2090600202015f82015f9054906101000a900473ffffffffffffffffffffffffffffffffffffffff16815f015f6101000a81548173ffffffffffffffffffffffffffffffffffffffff021916908373ffffffffffffffffffffffffffffffffffffffff1602179055506001820181600101908161028b9190610e69565b5090505080806001019150506101b1565b5060018054806102af576102ae610f4e565b5b600190038181905f5260205f2090600202015f8082015f6101000a81549073ffffffffffffffffffffffffffffffffffffffff0219169055600182015f6102f69190610761565b5050905561030c565b808060010191505061012b565b505b50565b5f4711610353576040517f08c379a000000000000000000000000000000000000000000000000000000000815260040161034a90610ffb565b60405180910390fd5b60018080549050106103dd575f600180549050476103719190611046565b90505f5b6001805490508110156103da576103cd6001828154811061039957610398610b9a565b5b905f5260205f2090600202015f015f9054906101000a900473ffffffffffffffffffffffffffffffffffffffff1683610719565b8080600101915050610375565b50505b565b565b5f47905090565b60606001805480602002602001604051908101604052809291908181526020015f905b8282101561051f578382905f5260205f2090600202016040518060400160405290815f82015f9054906101000a900473ffffffffffffffffffffffffffffffffffffffff1673ffffffffffffffffffffffffffffffffffffffff1673ffffffffffffffffffffffffffffffffffffffff16815260200160018201805461049090610c87565b80601f01602080910402602001604051908101604052809291908181526020018280546104bc90610c87565b80156105075780601f106104de57610100808354040283529160200191610507565b820191905f5260205f20905b8154815290600101906020018083116104ea57829003601f168201915b5050505050815250508152602001906001019061040b565b50505050905090565b5f8054906101000a900473ffffffffffffffffffffffffffffffffffffffff1673ffffffffffffffffffffffffffffffffffffffff163373ffffffffffffffffffffffffffffffffffffffff16146105b5576040517f08c379a00000000000000000000000000000000000000000000000000000000081526004016105ac906110e6565b60405180910390fd5b5f6001808054905010610659575f5b600180549050811015610657578373ffffffffffffffffffffffffffffffffffffffff16600182815481106105fc576105fb610b9a565b5b905f5260205f2090600202015f015f9054906101000a900473ffffffffffffffffffffffffffffffffffffffff1673ffffffffffffffffffffffffffffffffffffffff160361064a57600191505b80806001019150506105c4565b505b5f15158115150361071457600160405180604001604052808573ffffffffffffffffffffffffffffffffffffffff16815260200184815250908060018154018082558091505060019003905f5260205f2090600202015f909190919091505f820151815f015f6101000a81548173ffffffffffffffffffffffffffffffffffffffff021916908373ffffffffffffffffffffffffffffffffffffffff16021790555060208201518160010190816107109190611104565b5050505b505050565b8173ffffffffffffffffffffffffffffffffffffffff166108fc8290811502906040515f60405180830381858888f1935050505015801561075c573d5f803e3d5ffd5b505050565b50805461076d90610c87565b5f825580601f1061077e575061079b565b601f0160209004905f5260205f209081019061079a919061079e565b5b50565b5b808211156107b5575f815f90555060010161079f565b5090565b5f604051905090565b5f80fd5b5f80fd5b5f73ffffffffffffffffffffffffffffffffffffffff82169050919050565b5f6107f3826107ca565b9050919050565b610803816107e9565b811461080d575f80fd5b50565b5f8135905061081e816107fa565b92915050565b5f60208284031215610839576108386107c2565b5b5f61084684828501610810565b91505092915050565b5f819050919050565b6108618161084f565b82525050565b5f60208201905061087a5f830184610858565b92915050565b5f81519050919050565b5f82825260208201905092915050565b5f819050602082019050919050565b6108b2816107e9565b82525050565b5f81519050919050565b5f82825260208201905092915050565b8281835e5f83830152505050565b5f601f19601f8301169050919050565b5f6108fa826108b8565b61090481856108c2565b93506109148185602086016108d2565b61091d816108e0565b840191505092915050565b5f604083015f83015161093d5f8601826108a9565b506020830151848203602086015261095582826108f0565b9150508091505092915050565b5f61096d8383610928565b905092915050565b5f602082019050919050565b5f61098b82610880565b610995818561088a565b9350836020820285016109a78561089a565b805f5b858110156109e257848403895281516109c38582610962565b94506109ce83610975565b925060208a019950506001810190506109aa565b50829750879550505050505092915050565b5f6020820190508181035f830152610a0c8184610981565b905092915050565b5f80fd5b5f80fd5b7f4e487b71000000000000000000000000000000000000000000000000000000005f52604160045260245ffd5b610a52826108e0565b810181811067ffffffffffffffff82111715610a7157610a70610a1c565b5b80604052505050565b5f610a836107b9565b9050610a8f8282610a49565b919050565b5f67ffffffffffffffff821115610aae57610aad610a1c565b5b610ab7826108e0565b9050602081019050919050565b828183375f83830152505050565b5f610ae4610adf84610a94565b610a7a565b905082815260208101848484011115610b0057610aff610a18565b5b610b0b848285610ac4565b509392505050565b5f82601f830112610b2757610b26610a14565b5b8135610b37848260208601610ad2565b91505092915050565b5f8060408385031215610b5657610b556107c2565b5b5f610b6385828601610810565b925050602083013567ffffffffffffffff811115610b8457610b836107c6565b5b610b9085828601610b13565b9150509250929050565b7f4e487b71000000000000000000000000000000000000000000000000000000005f52603260045260245ffd5b7f4e487b71000000000000000000000000000000000000000000000000000000005f52601160045260245ffd5b5f610bfe8261084f565b9150610c098361084f565b9250828203905081811115610c2157610c20610bc7565b5b92915050565b5f610c318261084f565b9150610c3c8361084f565b9250828201905080821115610c5457610c53610bc7565b5b92915050565b7f4e487b71000000000000000000000000000000000000000000000000000000005f52602260045260245ffd5b5f6002820490506001821680610c9e57607f821691505b602082108103610cb157610cb0610c5a565b5b50919050565b5f81549050610cc581610c87565b9050919050565b5f819050815f5260205f209050919050565b5f6020601f8301049050919050565b5f82821b905092915050565b5f60088302610d287fffffffffffffffffffffffffffffffffffffffffffffffffffffffffffffffff82610ced565b610d328683610ced565b95508019841693508086168417925050509392505050565b5f819050919050565b5f610d6d610d68610d638461084f565b610d4a565b61084f565b9050919050565b5f819050919050565b610d8683610d53565b610d9a610d9282610d74565b848454610cf9565b825550505050565b5f90565b610dae610da2565b610db9818484610d7d565b505050565b5b81811015610ddc57610dd15f82610da6565b600181019050610dbf565b5050565b601f821115610e2157610df281610ccc565b610dfb84610cde565b81016020851015610e0a578190505b610e1e610e1685610cde565b830182610dbe565b50505b505050565b5f82821c905092915050565b5f610e415f1984600802610e26565b1980831691505092915050565b5f610e598383610e32565b9150826002028217905092915050565b818103610e77575050610f4c565b610e8082610cb7565b67ffffffffffffffff811115610e9957610e98610a1c565b5b610ea38254610c87565b610eae828285610de0565b5f601f831160018114610edb575f8415610ec9578287015490505b610ed38582610e4e565b865550610f45565b601f198416610ee987610ccc565b9650610ef486610ccc565b5f5b82811015610f1b57848901548255600182019150600185019450602081019050610ef6565b86831015610f385784890154610f34601f891682610e32565b8355505b6001600288020188555050505b5050505050505b565b7f4e487b71000000000000000000000000000000000000000000000000000000005f52603160045260245ffd5b5f82825260208201905092915050565b7f496e73756666696369656e742062616c616e636520696e2074686520636f6e745f8201527f7261637400000000000000000000000000000000000000000000000000000000602082015250565b5f610fe5602483610f7b565b9150610ff082610f8b565b604082019050919050565b5f6020820190508181035f83015261101281610fd9565b9050919050565b7f4e487b71000000000000000000000000000000000000000000000000000000005f52601260045260245ffd5b5f6110508261084f565b915061105b8361084f565b92508261106b5761106a611019565b5b828204905092915050565b7f4f6e6c7920746865206f776e65722063616e2063616c6c20746869732066756e5f8201527f6374696f6e000000000000000000000000000000000000000000000000000000602082015250565b5f6110d0602583610f7b565b91506110db82611076565b604082019050919050565b5f6020820190508181035f8301526110fd816110c4565b9050919050565b61110d826108b8565b67ffffffffffffffff81111561112657611125610a1c565b5b6111308254610c87565b61113b828285610de0565b5f60209050601f83116001811461116c575f841561115a578287015190505b6111648582610e4e565b8655506111cb565b601f19841661117a86610ccc565b5f5b828110156111a15784890151825560018201915060208501945060208101905061117c565b868310156111be57848901516111ba601f891682610e32565b8355505b6001600288020188555050505b50505050505056fea26469706673582212209bab23b9c7ec12c22a35c10c7ef19e8eb7069222e38719c9e34848e70023222e64736f6c634300081a0033",
					"opcodes": "PUSH1 0x80 PUSH1 0x40 MSTORE CALLVALUE DUP1 ISZERO PUSH1 0xE JUMPI PUSH0 DUP1 REVERT JUMPDEST POP CALLER PUSH0 DUP1 PUSH2 0x100 EXP DUP2 SLOAD DUP2 PUSH20 0xFFFFFFFFFFFFFFFFFFFFFFFFFFFFFFFFFFFFFFFF MUL NOT AND SWAP1 DUP4 PUSH20 0xFFFFFFFFFFFFFFFFFFFFFFFFFFFFFFFFFFFFFFFF AND MUL OR SWAP1 SSTORE POP PUSH2 0x1209 DUP1 PUSH2 0x5B PUSH0 CODECOPY PUSH0 RETURN INVALID PUSH1 0x80 PUSH1 0x40 MSTORE PUSH1 0x4 CALLDATASIZE LT PUSH2 0x54 JUMPI PUSH0 CALLDATALOAD PUSH1 0xE0 SHR DUP1 PUSH4 0x342DA8A EQ PUSH2 0x58 JUMPI DUP1 PUSH4 0x1158609E EQ PUSH2 0x80 JUMPI DUP1 PUSH4 0x541376C9 EQ PUSH2 0x96 JUMPI DUP1 PUSH4 0x7A0397FC EQ PUSH2 0xA0 JUMPI DUP1 PUSH4 0x8ED4D62F EQ PUSH2 0xCA JUMPI DUP1 PUSH4 0xCA4622FA EQ PUSH2 0xF4 JUMPI JUMPDEST PUSH0 DUP1 REVERT JUMPDEST CALLVALUE DUP1 ISZERO PUSH2 0x63 JUMPI PUSH0 DUP1 REVERT JUMPDEST POP PUSH2 0x7E PUSH1 0x4 DUP1 CALLDATASIZE SUB DUP2 ADD SWAP1 PUSH2 0x79 SWAP2 SWAP1 PUSH2 0x824 JUMP JUMPDEST PUSH2 0x11C JUMP JUMPDEST STOP JUMPDEST CALLVALUE DUP1 ISZERO PUSH2 0x8B JUMPI PUSH0 DUP1 REVERT JUMPDEST POP PUSH2 0x94 PUSH2 0x311 JUMP JUMPDEST STOP JUMPDEST PUSH2 0x9E PUSH2 0x3DF JUMP JUMPDEST STOP JUMPDEST CALLVALUE DUP1 ISZERO PUSH2 0xAB JUMPI PUSH0 DUP1 REVERT JUMPDEST POP PUSH2 0xB4 PUSH2 0x3E1 JUMP JUMPDEST PUSH1 0x40 MLOAD PUSH2 0xC1 SWAP2 SWAP1 PUSH2 0x867 JUMP JUMPDEST PUSH1 0x40 MLOAD DUP1 SWAP2 SUB SWAP1 RETURN JUMPDEST CALLVALUE DUP1 ISZERO PUSH2 0xD5 JUMPI PUSH0 DUP1 REVERT JUMPDEST POP PUSH2 0xDE PUSH2 0x3E8 JUMP JUMPDEST PUSH1 0x40 MLOAD PUSH2 0xEB SWAP2 SWAP1 PUSH2 0x9F4 JUMP JUMPDEST PUSH1 0x40 MLOAD DUP1 SWAP2 SUB SWAP1 RETURN JUMPDEST CALLVALUE DUP1 ISZERO PUSH2 0xFF JUMPI PUSH0 DUP1 REVERT JUMPDEST POP PUSH2 0x11A PUSH1 0x4 DUP1 CALLDATASIZE SUB DUP2 ADD SWAP1 PUSH2 0x115 SWAP2 SWAP1 PUSH2 0xB40 JUMP JUMPDEST PUSH2 0x528 JUMP JUMPDEST STOP JUMPDEST PUSH0 PUSH1 0x1 DUP1 SLOAD SWAP1 POP GT ISZERO PUSH2 0x30E JUMPI PUSH0 JUMPDEST PUSH1 0x1 DUP1 SLOAD SWAP1 POP DUP2 LT ISZERO PUSH2 0x30C JUMPI DUP2 PUSH20 0xFFFFFFFFFFFFFFFFFFFFFFFFFFFFFFFFFFFFFFFF AND PUSH1 0x1 DUP3 DUP2 SLOAD DUP2 LT PUSH2 0x163 JUMPI PUSH2 0x162 PUSH2 0xB9A JUMP JUMPDEST JUMPDEST SWAP1 PUSH0 MSTORE PUSH1 0x20 PUSH0 KECCAK256 SWAP1 PUSH1 0x2 MUL ADD PUSH0 ADD PUSH0 SWAP1 SLOAD SWAP1 PUSH2 0x100 EXP SWAP1 DIV PUSH20 0xFFFFFFFFFFFFFFFFFFFFFFFFFFFFFFFFFFFFFFFF AND PUSH20 0xFFFFFFFFFFFFFFFFFFFFFFFFFFFFFFFFFFFFFFFF AND SUB PUSH2 0x2FF JUMPI PUSH0 DUP2 SWAP1 POP JUMPDEST PUSH1 0x1 DUP1 DUP1 SLOAD SWAP1 POP PUSH2 0x1C2 SWAP2 SWAP1 PUSH2 0xBF4 JUMP JUMPDEST DUP2 LT ISZERO PUSH2 0x29C JUMPI PUSH1 0x1 DUP1 DUP3 PUSH2 0x1D7 SWAP2 SWAP1 PUSH2 0xC27 JUMP JUMPDEST DUP2 SLOAD DUP2 LT PUSH2 0x1E8 JUMPI PUSH2 0x1E7 PUSH2 0xB9A JUMP JUMPDEST JUMPDEST SWAP1 PUSH0 MSTORE PUSH1 0x20 PUSH0 KECCAK256 SWAP1 PUSH1 0x2 MUL ADD PUSH1 0x1 DUP3 DUP2 SLOAD DUP2 LT PUSH2 0x208 JUMPI PUSH2 0x207 PUSH2 0xB9A JUMP JUMPDEST JUMPDEST SWAP1 PUSH0 MSTORE PUSH1 0x20 PUSH0 KECCAK256 SWAP1 PUSH1 0x2 MUL ADD PUSH0 DUP3 ADD PUSH0 SWAP1 SLOAD SWAP1 PUSH2 0x100 EXP SWAP1 DIV PUSH20 0xFFFFFFFFFFFFFFFFFFFFFFFFFFFFFFFFFFFFFFFF AND DUP2 PUSH0 ADD PUSH0 PUSH2 0x100 EXP DUP2 SLOAD DUP2 PUSH20 0xFFFFFFFFFFFFFFFFFFFFFFFFFFFFFFFFFFFFFFFF MUL NOT AND SWAP1 DUP4 PUSH20 0xFFFFFFFFFFFFFFFFFFFFFFFFFFFFFFFFFFFFFFFF AND MUL OR SWAP1 SSTORE POP PUSH1 0x1 DUP3 ADD DUP2 PUSH1 0x1 ADD SWAP1 DUP2 PUSH2 0x28B SWAP2 SWAP1 PUSH2 0xE69 JUMP JUMPDEST POP SWAP1 POP POP DUP1 DUP1 PUSH1 0x1 ADD SWAP2 POP POP PUSH2 0x1B1 JUMP JUMPDEST POP PUSH1 0x1 DUP1 SLOAD DUP1 PUSH2 0x2AF JUMPI PUSH2 0x2AE PUSH2 0xF4E JUMP JUMPDEST JUMPDEST PUSH1 0x1 SWAP1 SUB DUP2 DUP2 SWAP1 PUSH0 MSTORE PUSH1 0x20 PUSH0 KECCAK256 SWAP1 PUSH1 0x2 MUL ADD PUSH0 DUP1 DUP3 ADD PUSH0 PUSH2 0x100 EXP DUP2 SLOAD SWAP1 PUSH20 0xFFFFFFFFFFFFFFFFFFFFFFFFFFFFFFFFFFFFFFFF MUL NOT AND SWAP1 SSTORE PUSH1 0x1 DUP3 ADD PUSH0 PUSH2 0x2F6 SWAP2 SWAP1 PUSH2 0x761 JUMP JUMPDEST POP POP SWAP1 SSTORE PUSH2 0x30C JUMP JUMPDEST DUP1 DUP1 PUSH1 0x1 ADD SWAP2 POP POP PUSH2 0x12B JUMP JUMPDEST POP JUMPDEST POP JUMP JUMPDEST PUSH0 SELFBALANCE GT PUSH2 0x353 JUMPI PUSH1 0x40 MLOAD PUSH32 0x8C379A000000000000000000000000000000000000000000000000000000000 DUP2 MSTORE PUSH1 0x4 ADD PUSH2 0x34A SWAP1 PUSH2 0xFFB JUMP JUMPDEST PUSH1 0x40 MLOAD DUP1 SWAP2 SUB SWAP1 REVERT JUMPDEST PUSH1 0x1 DUP1 DUP1 SLOAD SWAP1 POP LT PUSH2 0x3DD JUMPI PUSH0 PUSH1 0x1 DUP1 SLOAD SWAP1 POP SELFBALANCE PUSH2 0x371 SWAP2 SWAP1 PUSH2 0x1046 JUMP JUMPDEST SWAP1 POP PUSH0 JUMPDEST PUSH1 0x1 DUP1 SLOAD SWAP1 POP DUP2 LT ISZERO PUSH2 0x3DA JUMPI PUSH2 0x3CD PUSH1 0x1 DUP3 DUP2 SLOAD DUP2 LT PUSH2 0x399 JUMPI PUSH2 0x398 PUSH2 0xB9A JUMP JUMPDEST JUMPDEST SWAP1 PUSH0 MSTORE PUSH1 0x20 PUSH0 KECCAK256 SWAP1 PUSH1 0x2 MUL ADD PUSH0 ADD PUSH0 SWAP1 SLOAD SWAP1 PUSH2 0x100 EXP SWAP1 DIV PUSH20 0xFFFFFFFFFFFFFFFFFFFFFFFFFFFFFFFFFFFFFFFF AND DUP4 PUSH2 0x719 JUMP JUMPDEST DUP1 DUP1 PUSH1 0x1 ADD SWAP2 POP POP PUSH2 0x375 JUMP JUMPDEST POP POP JUMPDEST JUMP JUMPDEST JUMP JUMPDEST PUSH0 SELFBALANCE SWAP1 POP SWAP1 JUMP JUMPDEST PUSH1 0x60 PUSH1 0x1 DUP1 SLOAD DUP1 PUSH1 0x20 MUL PUSH1 0x20 ADD PUSH1 0x40 MLOAD SWAP1 DUP2 ADD PUSH1 0x40 MSTORE DUP1 SWAP3 SWAP2 SWAP1 DUP2 DUP2 MSTORE PUSH1 0x20 ADD PUSH0 SWAP1 JUMPDEST DUP3 DUP3 LT ISZERO PUSH2 0x51F JUMPI DUP4 DUP3 SWAP1 PUSH0 MSTORE PUSH1 0x20 PUSH0 KECCAK256 SWAP1 PUSH1 0x2 MUL ADD PUSH1 0x40 MLOAD DUP1 PUSH1 0x40 ADD PUSH1 0x40 MSTORE SWAP1 DUP2 PUSH0 DUP3 ADD PUSH0 SWAP1 SLOAD SWAP1 PUSH2 0x100 EXP SWAP1 DIV PUSH20 0xFFFFFFFFFFFFFFFFFFFFFFFFFFFFFFFFFFFFFFFF AND PUSH20 0xFFFFFFFFFFFFFFFFFFFFFFFFFFFFFFFFFFFFFFFF AND PUSH20 0xFFFFFFFFFFFFFFFFFFFFFFFFFFFFFFFFFFFFFFFF AND DUP2 MSTORE PUSH1 0x20 ADD PUSH1 0x1 DUP3 ADD DUP1 SLOAD PUSH2 0x490 SWAP1 PUSH2 0xC87 JUMP JUMPDEST DUP1 PUSH1 0x1F ADD PUSH1 0x20 DUP1 SWAP2 DIV MUL PUSH1 0x20 ADD PUSH1 0x40 MLOAD SWAP1 DUP2 ADD PUSH1 0x40 MSTORE DUP1 SWAP3 SWAP2 SWAP1 DUP2 DUP2 MSTORE PUSH1 0x20 ADD DUP3 DUP1 SLOAD PUSH2 0x4BC SWAP1 PUSH2 0xC87 JUMP JUMPDEST DUP1 ISZERO PUSH2 0x507 JUMPI DUP1 PUSH1 0x1F LT PUSH2 0x4DE JUMPI PUSH2 0x100 DUP1 DUP4 SLOAD DIV MUL DUP4 MSTORE SWAP2 PUSH1 0x20 ADD SWAP2 PUSH2 0x507 JUMP JUMPDEST DUP3 ADD SWAP2 SWAP1 PUSH0 MSTORE PUSH1 0x20 PUSH0 KECCAK256 SWAP1 JUMPDEST DUP2 SLOAD DUP2 MSTORE SWAP1 PUSH1 0x1 ADD SWAP1 PUSH1 0x20 ADD DUP1 DUP4 GT PUSH2 0x4EA JUMPI DUP3 SWAP1 SUB PUSH1 0x1F AND DUP3 ADD SWAP2 JUMPDEST POP POP POP POP POP DUP2 MSTORE POP POP DUP2 MSTORE PUSH1 0x20 ADD SWAP1 PUSH1 0x1 ADD SWAP1 PUSH2 0x40B JUMP JUMPDEST POP POP POP POP SWAP1 POP SWAP1 JUMP JUMPDEST PUSH0 DUP1 SLOAD SWAP1 PUSH2 0x100 EXP SWAP1 DIV PUSH20 0xFFFFFFFFFFFFFFFFFFFFFFFFFFFFFFFFFFFFFFFF AND PUSH20 0xFFFFFFFFFFFFFFFFFFFFFFFFFFFFFFFFFFFFFFFF AND CALLER PUSH20 0xFFFFFFFFFFFFFFFFFFFFFFFFFFFFFFFFFFFFFFFF AND EQ PUSH2 0x5B5 JUMPI PUSH1 0x40 MLOAD PUSH32 0x8C379A000000000000000000000000000000000000000000000000000000000 DUP2 MSTORE PUSH1 0x4 ADD PUSH2 0x5AC SWAP1 PUSH2 0x10E6 JUMP JUMPDEST PUSH1 0x40 MLOAD DUP1 SWAP2 SUB SWAP1 REVERT JUMPDEST PUSH0 PUSH1 0x1 DUP1 DUP1 SLOAD SWAP1 POP LT PUSH2 0x659 JUMPI PUSH0 JUMPDEST PUSH1 0x1 DUP1 SLOAD SWAP1 POP DUP2 LT ISZERO PUSH2 0x657 JUMPI DUP4 PUSH20 0xFFFFFFFFFFFFFFFFFFFFFFFFFFFFFFFFFFFFFFFF AND PUSH1 0x1 DUP3 DUP2 SLOAD DUP2 LT PUSH2 0x5FC JUMPI PUSH2 0x5FB PUSH2 0xB9A JUMP JUMPDEST JUMPDEST SWAP1 PUSH0 MSTORE PUSH1 0x20 PUSH0 KECCAK256 SWAP1 PUSH1 0x2 MUL ADD PUSH0 ADD PUSH0 SWAP1 SLOAD SWAP1 PUSH2 0x100 EXP SWAP1 DIV PUSH20 0xFFFFFFFFFFFFFFFFFFFFFFFFFFFFFFFFFFFFFFFF AND PUSH20 0xFFFFFFFFFFFFFFFFFFFFFFFFFFFFFFFFFFFFFFFF AND SUB PUSH2 0x64A JUMPI PUSH1 0x1 SWAP2 POP JUMPDEST DUP1 DUP1 PUSH1 0x1 ADD SWAP2 POP POP PUSH2 0x5C4 JUMP JUMPDEST POP JUMPDEST PUSH0 ISZERO ISZERO DUP2 ISZERO ISZERO SUB PUSH2 0x714 JUMPI PUSH1 0x1 PUSH1 0x40 MLOAD DUP1 PUSH1 0x40 ADD PUSH1 0x40 MSTORE DUP1 DUP6 PUSH20 0xFFFFFFFFFFFFFFFFFFFFFFFFFFFFFFFFFFFFFFFF AND DUP2 MSTORE PUSH1 0x20 ADD DUP5 DUP2 MSTORE POP SWAP1 DUP1 PUSH1 0x1 DUP2 SLOAD ADD DUP1 DUP3 SSTORE DUP1 SWAP2 POP POP PUSH1 0x1 SWAP1 SUB SWAP1 PUSH0 MSTORE PUSH1 0x20 PUSH0 KECCAK256 SWAP1 PUSH1 0x2 MUL ADD PUSH0 SWAP1 SWAP2 SWAP1 SWAP2 SWAP1 SWAP2 POP PUSH0 DUP3 ADD MLOAD DUP2 PUSH0 ADD PUSH0 PUSH2 0x100 EXP DUP2 SLOAD DUP2 PUSH20 0xFFFFFFFFFFFFFFFFFFFFFFFFFFFFFFFFFFFFFFFF MUL NOT AND SWAP1 DUP4 PUSH20 0xFFFFFFFFFFFFFFFFFFFFFFFFFFFFFFFFFFFFFFFF AND MUL OR SWAP1 SSTORE POP PUSH1 0x20 DUP3 ADD MLOAD DUP2 PUSH1 0x1 ADD SWAP1 DUP2 PUSH2 0x710 SWAP2 SWAP1 PUSH2 0x1104 JUMP JUMPDEST POP POP POP JUMPDEST POP POP POP JUMP JUMPDEST DUP2 PUSH20 0xFFFFFFFFFFFFFFFFFFFFFFFFFFFFFFFFFFFFFFFF AND PUSH2 0x8FC DUP3 SWAP1 DUP2 ISZERO MUL SWAP1 PUSH1 0x40 MLOAD PUSH0 PUSH1 0x40 MLOAD DUP1 DUP4 SUB DUP2 DUP6 DUP9 DUP9 CALL SWAP4 POP POP POP POP ISZERO DUP1 ISZERO PUSH2 0x75C JUMPI RETURNDATASIZE PUSH0 DUP1 RETURNDATACOPY RETURNDATASIZE PUSH0 REVERT JUMPDEST POP POP POP JUMP JUMPDEST POP DUP1 SLOAD PUSH2 0x76D SWAP1 PUSH2 0xC87 JUMP JUMPDEST PUSH0 DUP3 SSTORE DUP1 PUSH1 0x1F LT PUSH2 0x77E JUMPI POP PUSH2 0x79B JUMP JUMPDEST PUSH1 0x1F ADD PUSH1 0x20 SWAP1 DIV SWAP1 PUSH0 MSTORE PUSH1 0x20 PUSH0 KECCAK256 SWAP1 DUP2 ADD SWAP1 PUSH2 0x79A SWAP2 SWAP1 PUSH2 0x79E JUMP JUMPDEST JUMPDEST POP JUMP JUMPDEST JUMPDEST DUP1 DUP3 GT ISZERO PUSH2 0x7B5 JUMPI PUSH0 DUP2 PUSH0 SWAP1 SSTORE POP PUSH1 0x1 ADD PUSH2 0x79F JUMP JUMPDEST POP SWAP1 JUMP JUMPDEST PUSH0 PUSH1 0x40 MLOAD SWAP1 POP SWAP1 JUMP JUMPDEST PUSH0 DUP1 REVERT JUMPDEST PUSH0 DUP1 REVERT JUMPDEST PUSH0 PUSH20 0xFFFFFFFFFFFFFFFFFFFFFFFFFFFFFFFFFFFFFFFF DUP3 AND SWAP1 POP SWAP2 SWAP1 POP JUMP JUMPDEST PUSH0 PUSH2 0x7F3 DUP3 PUSH2 0x7CA JUMP JUMPDEST SWAP1 POP SWAP2 SWAP1 POP JUMP JUMPDEST PUSH2 0x803 DUP2 PUSH2 0x7E9 JUMP JUMPDEST DUP2 EQ PUSH2 0x80D JUMPI PUSH0 DUP1 REVERT JUMPDEST POP JUMP JUMPDEST PUSH0 DUP2 CALLDATALOAD SWAP1 POP PUSH2 0x81E DUP2 PUSH2 0x7FA JUMP JUMPDEST SWAP3 SWAP2 POP POP JUMP JUMPDEST PUSH0 PUSH1 0x20 DUP3 DUP5 SUB SLT ISZERO PUSH2 0x839 JUMPI PUSH2 0x838 PUSH2 0x7C2 JUMP JUMPDEST JUMPDEST PUSH0 PUSH2 0x846 DUP5 DUP3 DUP6 ADD PUSH2 0x810 JUMP JUMPDEST SWAP2 POP POP SWAP3 SWAP2 POP POP JUMP JUMPDEST PUSH0 DUP2 SWAP1 POP SWAP2 SWAP1 POP JUMP JUMPDEST PUSH2 0x861 DUP2 PUSH2 0x84F JUMP JUMPDEST DUP3 MSTORE POP POP JUMP JUMPDEST PUSH0 PUSH1 0x20 DUP3 ADD SWAP1 POP PUSH2 0x87A PUSH0 DUP4 ADD DUP5 PUSH2 0x858 JUMP JUMPDEST SWAP3 SWAP2 POP POP JUMP JUMPDEST PUSH0 DUP2 MLOAD SWAP1 POP SWAP2 SWAP1 POP JUMP JUMPDEST PUSH0 DUP3 DUP3 MSTORE PUSH1 0x20 DUP3 ADD SWAP1 POP SWAP3 SWAP2 POP POP JUMP JUMPDEST PUSH0 DUP2 SWAP1 POP PUSH1 0x20 DUP3 ADD SWAP1 POP SWAP2 SWAP1 POP JUMP JUMPDEST PUSH2 0x8B2 DUP2 PUSH2 0x7E9 JUMP JUMPDEST DUP3 MSTORE POP POP JUMP JUMPDEST PUSH0 DUP2 MLOAD SWAP1 POP SWAP2 SWAP1 POP JUMP JUMPDEST PUSH0 DUP3 DUP3 MSTORE PUSH1 0x20 DUP3 ADD SWAP1 POP SWAP3 SWAP2 POP POP JUMP JUMPDEST DUP3 DUP2 DUP4 MCOPY PUSH0 DUP4 DUP4 ADD MSTORE POP POP POP JUMP JUMPDEST PUSH0 PUSH1 0x1F NOT PUSH1 0x1F DUP4 ADD AND SWAP1 POP SWAP2 SWAP1 POP JUMP JUMPDEST PUSH0 PUSH2 0x8FA DUP3 PUSH2 0x8B8 JUMP JUMPDEST PUSH2 0x904 DUP2 DUP6 PUSH2 0x8C2 JUMP JUMPDEST SWAP4 POP PUSH2 0x914 DUP2 DUP6 PUSH1 0x20 DUP7 ADD PUSH2 0x8D2 JUMP JUMPDEST PUSH2 0x91D DUP2 PUSH2 0x8E0 JUMP JUMPDEST DUP5 ADD SWAP2 POP POP SWAP3 SWAP2 POP POP JUMP JUMPDEST PUSH0 PUSH1 0x40 DUP4 ADD PUSH0 DUP4 ADD MLOAD PUSH2 0x93D PUSH0 DUP7 ADD DUP3 PUSH2 0x8A9 JUMP JUMPDEST POP PUSH1 0x20 DUP4 ADD MLOAD DUP5 DUP3 SUB PUSH1 0x20 DUP7 ADD MSTORE PUSH2 0x955 DUP3 DUP3 PUSH2 0x8F0 JUMP JUMPDEST SWAP2 POP POP DUP1 SWAP2 POP POP SWAP3 SWAP2 POP POP JUMP JUMPDEST PUSH0 PUSH2 0x96D DUP4 DUP4 PUSH2 0x928 JUMP JUMPDEST SWAP1 POP SWAP3 SWAP2 POP POP JUMP JUMPDEST PUSH0 PUSH1 0x20 DUP3 ADD SWAP1 POP SWAP2 SWAP1 POP JUMP JUMPDEST PUSH0 PUSH2 0x98B DUP3 PUSH2 0x880 JUMP JUMPDEST PUSH2 0x995 DUP2 DUP6 PUSH2 0x88A JUMP JUMPDEST SWAP4 POP DUP4 PUSH1 0x20 DUP3 MUL DUP6 ADD PUSH2 0x9A7 DUP6 PUSH2 0x89A JUMP JUMPDEST DUP1 PUSH0 JUMPDEST DUP6 DUP2 LT ISZERO PUSH2 0x9E2 JUMPI DUP5 DUP5 SUB DUP10 MSTORE DUP2 MLOAD PUSH2 0x9C3 DUP6 DUP3 PUSH2 0x962 JUMP JUMPDEST SWAP5 POP PUSH2 0x9CE DUP4 PUSH2 0x975 JUMP JUMPDEST SWAP3 POP PUSH1 0x20 DUP11 ADD SWAP10 POP POP PUSH1 0x1 DUP2 ADD SWAP1 POP PUSH2 0x9AA JUMP JUMPDEST POP DUP3 SWAP8 POP DUP8 SWAP6 POP POP POP POP POP POP SWAP3 SWAP2 POP POP JUMP JUMPDEST PUSH0 PUSH1 0x20 DUP3 ADD SWAP1 POP DUP2 DUP2 SUB PUSH0 DUP4 ADD MSTORE PUSH2 0xA0C DUP2 DUP5 PUSH2 0x981 JUMP JUMPDEST SWAP1 POP SWAP3 SWAP2 POP POP JUMP JUMPDEST PUSH0 DUP1 REVERT JUMPDEST PUSH0 DUP1 REVERT JUMPDEST PUSH32 0x4E487B7100000000000000000000000000000000000000000000000000000000 PUSH0 MSTORE PUSH1 0x41 PUSH1 0x4 MSTORE PUSH1 0x24 PUSH0 REVERT JUMPDEST PUSH2 0xA52 DUP3 PUSH2 0x8E0 JUMP JUMPDEST DUP2 ADD DUP2 DUP2 LT PUSH8 0xFFFFFFFFFFFFFFFF DUP3 GT OR ISZERO PUSH2 0xA71 JUMPI PUSH2 0xA70 PUSH2 0xA1C JUMP JUMPDEST JUMPDEST DUP1 PUSH1 0x40 MSTORE POP POP POP JUMP JUMPDEST PUSH0 PUSH2 0xA83 PUSH2 0x7B9 JUMP JUMPDEST SWAP1 POP PUSH2 0xA8F DUP3 DUP3 PUSH2 0xA49 JUMP JUMPDEST SWAP2 SWAP1 POP JUMP JUMPDEST PUSH0 PUSH8 0xFFFFFFFFFFFFFFFF DUP3 GT ISZERO PUSH2 0xAAE JUMPI PUSH2 0xAAD PUSH2 0xA1C JUMP JUMPDEST JUMPDEST PUSH2 0xAB7 DUP3 PUSH2 0x8E0 JUMP JUMPDEST SWAP1 POP PUSH1 0x20 DUP2 ADD SWAP1 POP SWAP2 SWAP1 POP JUMP JUMPDEST DUP3 DUP2 DUP4 CALLDATACOPY PUSH0 DUP4 DUP4 ADD MSTORE POP POP POP JUMP JUMPDEST PUSH0 PUSH2 0xAE4 PUSH2 0xADF DUP5 PUSH2 0xA94 JUMP JUMPDEST PUSH2 0xA7A JUMP JUMPDEST SWAP1 POP DUP3 DUP2 MSTORE PUSH1 0x20 DUP2 ADD DUP5 DUP5 DUP5 ADD GT ISZERO PUSH2 0xB00 JUMPI PUSH2 0xAFF PUSH2 0xA18 JUMP JUMPDEST JUMPDEST PUSH2 0xB0B DUP5 DUP3 DUP6 PUSH2 0xAC4 JUMP JUMPDEST POP SWAP4 SWAP3 POP POP POP JUMP JUMPDEST PUSH0 DUP3 PUSH1 0x1F DUP4 ADD SLT PUSH2 0xB27 JUMPI PUSH2 0xB26 PUSH2 0xA14 JUMP JUMPDEST JUMPDEST DUP2 CALLDATALOAD PUSH2 0xB37 DUP5 DUP3 PUSH1 0x20 DUP7 ADD PUSH2 0xAD2 JUMP JUMPDEST SWAP2 POP POP SWAP3 SWAP2 POP POP JUMP JUMPDEST PUSH0 DUP1 PUSH1 0x40 DUP4 DUP6 SUB SLT ISZERO PUSH2 0xB56 JUMPI PUSH2 0xB55 PUSH2 0x7C2 JUMP JUMPDEST JUMPDEST PUSH0 PUSH2 0xB63 DUP6 DUP3 DUP7 ADD PUSH2 0x810 JUMP JUMPDEST SWAP3 POP POP PUSH1 0x20 DUP4 ADD CALLDATALOAD PUSH8 0xFFFFFFFFFFFFFFFF DUP2 GT ISZERO PUSH2 0xB84 JUMPI PUSH2 0xB83 PUSH2 0x7C6 JUMP JUMPDEST JUMPDEST PUSH2 0xB90 DUP6 DUP3 DUP7 ADD PUSH2 0xB13 JUMP JUMPDEST SWAP2 POP POP SWAP3 POP SWAP3 SWAP1 POP JUMP JUMPDEST PUSH32 0x4E487B7100000000000000000000000000000000000000000000000000000000 PUSH0 MSTORE PUSH1 0x32 PUSH1 0x4 MSTORE PUSH1 0x24 PUSH0 REVERT JUMPDEST PUSH32 0x4E487B7100000000000000000000000000000000000000000000000000000000 PUSH0 MSTORE PUSH1 0x11 PUSH1 0x4 MSTORE PUSH1 0x24 PUSH0 REVERT JUMPDEST PUSH0 PUSH2 0xBFE DUP3 PUSH2 0x84F JUMP JUMPDEST SWAP2 POP PUSH2 0xC09 DUP4 PUSH2 0x84F JUMP JUMPDEST SWAP3 POP DUP3 DUP3 SUB SWAP1 POP DUP2 DUP2 GT ISZERO PUSH2 0xC21 JUMPI PUSH2 0xC20 PUSH2 0xBC7 JUMP JUMPDEST JUMPDEST SWAP3 SWAP2 POP POP JUMP JUMPDEST PUSH0 PUSH2 0xC31 DUP3 PUSH2 0x84F JUMP JUMPDEST SWAP2 POP PUSH2 0xC3C DUP4 PUSH2 0x84F JUMP JUMPDEST SWAP3 POP DUP3 DUP3 ADD SWAP1 POP DUP1 DUP3 GT ISZERO PUSH2 0xC54 JUMPI PUSH2 0xC53 PUSH2 0xBC7 JUMP JUMPDEST JUMPDEST SWAP3 SWAP2 POP POP JUMP JUMPDEST PUSH32 0x4E487B7100000000000000000000000000000000000000000000000000000000 PUSH0 MSTORE PUSH1 0x22 PUSH1 0x4 MSTORE PUSH1 0x24 PUSH0 REVERT JUMPDEST PUSH0 PUSH1 0x2 DUP3 DIV SWAP1 POP PUSH1 0x1 DUP3 AND DUP1 PUSH2 0xC9E JUMPI PUSH1 0x7F DUP3 AND SWAP2 POP JUMPDEST PUSH1 0x20 DUP3 LT DUP2 SUB PUSH2 0xCB1 JUMPI PUSH2 0xCB0 PUSH2 0xC5A JUMP JUMPDEST JUMPDEST POP SWAP2 SWAP1 POP JUMP JUMPDEST PUSH0 DUP2 SLOAD SWAP1 POP PUSH2 0xCC5 DUP2 PUSH2 0xC87 JUMP JUMPDEST SWAP1 POP SWAP2 SWAP1 POP JUMP JUMPDEST PUSH0 DUP2 SWAP1 POP DUP2 PUSH0 MSTORE PUSH1 0x20 PUSH0 KECCAK256 SWAP1 POP SWAP2 SWAP1 POP JUMP JUMPDEST PUSH0 PUSH1 0x20 PUSH1 0x1F DUP4 ADD DIV SWAP1 POP SWAP2 SWAP1 POP JUMP JUMPDEST PUSH0 DUP3 DUP3 SHL SWAP1 POP SWAP3 SWAP2 POP POP JUMP JUMPDEST PUSH0 PUSH1 0x8 DUP4 MUL PUSH2 0xD28 PUSH32 0xFFFFFFFFFFFFFFFFFFFFFFFFFFFFFFFFFFFFFFFFFFFFFFFFFFFFFFFFFFFFFFFF DUP3 PUSH2 0xCED JUMP JUMPDEST PUSH2 0xD32 DUP7 DUP4 PUSH2 0xCED JUMP JUMPDEST SWAP6 POP DUP1 NOT DUP5 AND SWAP4 POP DUP1 DUP7 AND DUP5 OR SWAP3 POP POP POP SWAP4 SWAP3 POP POP POP JUMP JUMPDEST PUSH0 DUP2 SWAP1 POP SWAP2 SWAP1 POP JUMP JUMPDEST PUSH0 PUSH2 0xD6D PUSH2 0xD68 PUSH2 0xD63 DUP5 PUSH2 0x84F JUMP JUMPDEST PUSH2 0xD4A JUMP JUMPDEST PUSH2 0x84F JUMP JUMPDEST SWAP1 POP SWAP2 SWAP1 POP JUMP JUMPDEST PUSH0 DUP2 SWAP1 POP SWAP2 SWAP1 POP JUMP JUMPDEST PUSH2 0xD86 DUP4 PUSH2 0xD53 JUMP JUMPDEST PUSH2 0xD9A PUSH2 0xD92 DUP3 PUSH2 0xD74 JUMP JUMPDEST DUP5 DUP5 SLOAD PUSH2 0xCF9 JUMP JUMPDEST DUP3 SSTORE POP POP POP POP JUMP JUMPDEST PUSH0 SWAP1 JUMP JUMPDEST PUSH2 0xDAE PUSH2 0xDA2 JUMP JUMPDEST PUSH2 0xDB9 DUP2 DUP5 DUP5 PUSH2 0xD7D JUMP JUMPDEST POP POP POP JUMP JUMPDEST JUMPDEST DUP2 DUP2 LT ISZERO PUSH2 0xDDC JUMPI PUSH2 0xDD1 PUSH0 DUP3 PUSH2 0xDA6 JUMP JUMPDEST PUSH1 0x1 DUP2 ADD SWAP1 POP PUSH2 0xDBF JUMP JUMPDEST POP POP JUMP JUMPDEST PUSH1 0x1F DUP3 GT ISZERO PUSH2 0xE21 JUMPI PUSH2 0xDF2 DUP2 PUSH2 0xCCC JUMP JUMPDEST PUSH2 0xDFB DUP5 PUSH2 0xCDE JUMP JUMPDEST DUP2 ADD PUSH1 0x20 DUP6 LT ISZERO PUSH2 0xE0A JUMPI DUP2 SWAP1 POP JUMPDEST PUSH2 0xE1E PUSH2 0xE16 DUP6 PUSH2 0xCDE JUMP JUMPDEST DUP4 ADD DUP3 PUSH2 0xDBE JUMP JUMPDEST POP POP JUMPDEST POP POP POP JUMP JUMPDEST PUSH0 DUP3 DUP3 SHR SWAP1 POP SWAP3 SWAP2 POP POP JUMP JUMPDEST PUSH0 PUSH2 0xE41 PUSH0 NOT DUP5 PUSH1 0x8 MUL PUSH2 0xE26 JUMP JUMPDEST NOT DUP1 DUP4 AND SWAP2 POP POP SWAP3 SWAP2 POP POP JUMP JUMPDEST PUSH0 PUSH2 0xE59 DUP4 DUP4 PUSH2 0xE32 JUMP JUMPDEST SWAP2 POP DUP3 PUSH1 0x2 MUL DUP3 OR SWAP1 POP SWAP3 SWAP2 POP POP JUMP JUMPDEST DUP2 DUP2 SUB PUSH2 0xE77 JUMPI POP POP PUSH2 0xF4C JUMP JUMPDEST PUSH2 0xE80 DUP3 PUSH2 0xCB7 JUMP JUMPDEST PUSH8 0xFFFFFFFFFFFFFFFF DUP2 GT ISZERO PUSH2 0xE99 JUMPI PUSH2 0xE98 PUSH2 0xA1C JUMP JUMPDEST JUMPDEST PUSH2 0xEA3 DUP3 SLOAD PUSH2 0xC87 JUMP JUMPDEST PUSH2 0xEAE DUP3 DUP3 DUP6 PUSH2 0xDE0 JUMP JUMPDEST PUSH0 PUSH1 0x1F DUP4 GT PUSH1 0x1 DUP2 EQ PUSH2 0xEDB JUMPI PUSH0 DUP5 ISZERO PUSH2 0xEC9 JUMPI DUP3 DUP8 ADD SLOAD SWAP1 POP JUMPDEST PUSH2 0xED3 DUP6 DUP3 PUSH2 0xE4E JUMP JUMPDEST DUP7 SSTORE POP PUSH2 0xF45 JUMP JUMPDEST PUSH1 0x1F NOT DUP5 AND PUSH2 0xEE9 DUP8 PUSH2 0xCCC JUMP JUMPDEST SWAP7 POP PUSH2 0xEF4 DUP7 PUSH2 0xCCC JUMP JUMPDEST PUSH0 JUMPDEST DUP3 DUP2 LT ISZERO PUSH2 0xF1B JUMPI DUP5 DUP10 ADD SLOAD DUP3 SSTORE PUSH1 0x1 DUP3 ADD SWAP2 POP PUSH1 0x1 DUP6 ADD SWAP5 POP PUSH1 0x20 DUP2 ADD SWAP1 POP PUSH2 0xEF6 JUMP JUMPDEST DUP7 DUP4 LT ISZERO PUSH2 0xF38 JUMPI DUP5 DUP10 ADD SLOAD PUSH2 0xF34 PUSH1 0x1F DUP10 AND DUP3 PUSH2 0xE32 JUMP JUMPDEST DUP4 SSTORE POP JUMPDEST PUSH1 0x1 PUSH1 0x2 DUP9 MUL ADD DUP9 SSTORE POP POP POP JUMPDEST POP POP POP POP POP POP JUMPDEST JUMP JUMPDEST PUSH32 0x4E487B7100000000000000000000000000000000000000000000000000000000 PUSH0 MSTORE PUSH1 0x31 PUSH1 0x4 MSTORE PUSH1 0x24 PUSH0 REVERT JUMPDEST PUSH0 DUP3 DUP3 MSTORE PUSH1 0x20 DUP3 ADD SWAP1 POP SWAP3 SWAP2 POP POP JUMP JUMPDEST PUSH32 0x496E73756666696369656E742062616C616E636520696E2074686520636F6E74 PUSH0 DUP3 ADD MSTORE PUSH32 0x7261637400000000000000000000000000000000000000000000000000000000 PUSH1 0x20 DUP3 ADD MSTORE POP JUMP JUMPDEST PUSH0 PUSH2 0xFE5 PUSH1 0x24 DUP4 PUSH2 0xF7B JUMP JUMPDEST SWAP2 POP PUSH2 0xFF0 DUP3 PUSH2 0xF8B JUMP JUMPDEST PUSH1 0x40 DUP3 ADD SWAP1 POP SWAP2 SWAP1 POP JUMP JUMPDEST PUSH0 PUSH1 0x20 DUP3 ADD SWAP1 POP DUP2 DUP2 SUB PUSH0 DUP4 ADD MSTORE PUSH2 0x1012 DUP2 PUSH2 0xFD9 JUMP JUMPDEST SWAP1 POP SWAP2 SWAP1 POP JUMP JUMPDEST PUSH32 0x4E487B7100000000000000000000000000000000000000000000000000000000 PUSH0 MSTORE PUSH1 0x12 PUSH1 0x4 MSTORE PUSH1 0x24 PUSH0 REVERT JUMPDEST PUSH0 PUSH2 0x1050 DUP3 PUSH2 0x84F JUMP JUMPDEST SWAP2 POP PUSH2 0x105B DUP4 PUSH2 0x84F JUMP JUMPDEST SWAP3 POP DUP3 PUSH2 0x106B JUMPI PUSH2 0x106A PUSH2 0x1019 JUMP JUMPDEST JUMPDEST DUP3 DUP3 DIV SWAP1 POP SWAP3 SWAP2 POP POP JUMP JUMPDEST PUSH32 0x4F6E6C7920746865206F776E65722063616E2063616C6C20746869732066756E PUSH0 DUP3 ADD MSTORE PUSH32 0x6374696F6E000000000000000000000000000000000000000000000000000000 PUSH1 0x20 DUP3 ADD MSTORE POP JUMP JUMPDEST PUSH0 PUSH2 0x10D0 PUSH1 0x25 DUP4 PUSH2 0xF7B JUMP JUMPDEST SWAP2 POP PUSH2 0x10DB DUP3 PUSH2 0x1076 JUMP JUMPDEST PUSH1 0x40 DUP3 ADD SWAP1 POP SWAP2 SWAP1 POP JUMP JUMPDEST PUSH0 PUSH1 0x20 DUP3 ADD SWAP1 POP DUP2 DUP2 SUB PUSH0 DUP4 ADD MSTORE PUSH2 0x10FD DUP2 PUSH2 0x10C4 JUMP JUMPDEST SWAP1 POP SWAP2 SWAP1 POP JUMP JUMPDEST PUSH2 0x110D DUP3 PUSH2 0x8B8 JUMP JUMPDEST PUSH8 0xFFFFFFFFFFFFFFFF DUP2 GT ISZERO PUSH2 0x1126 JUMPI PUSH2 0x1125 PUSH2 0xA1C JUMP JUMPDEST JUMPDEST PUSH2 0x1130 DUP3 SLOAD PUSH2 0xC87 JUMP JUMPDEST PUSH2 0x113B DUP3 DUP3 DUP6 PUSH2 0xDE0 JUMP JUMPDEST PUSH0 PUSH1 0x20 SWAP1 POP PUSH1 0x1F DUP4 GT PUSH1 0x1 DUP2 EQ PUSH2 0x116C JUMPI PUSH0 DUP5 ISZERO PUSH2 0x115A JUMPI DUP3 DUP8 ADD MLOAD SWAP1 POP JUMPDEST PUSH2 0x1164 DUP6 DUP3 PUSH2 0xE4E JUMP JUMPDEST DUP7 SSTORE POP PUSH2 0x11CB JUMP JUMPDEST PUSH1 0x1F NOT DUP5 AND PUSH2 0x117A DUP7 PUSH2 0xCCC JUMP JUMPDEST PUSH0 JUMPDEST DUP3 DUP2 LT ISZERO PUSH2 0x11A1 JUMPI DUP5 DUP10 ADD MLOAD DUP3 SSTORE PUSH1 0x1 DUP3 ADD SWAP2 POP PUSH1 0x20 DUP6 ADD SWAP5 POP PUSH1 0x20 DUP2 ADD SWAP1 POP PUSH2 0x117C JUMP JUMPDEST DUP7 DUP4 LT ISZERO PUSH2 0x11BE JUMPI DUP5 DUP10 ADD MLOAD PUSH2 0x11BA PUSH1 0x1F DUP10 AND DUP3 PUSH2 0xE32 JUMP JUMPDEST DUP4 SSTORE POP JUMPDEST PUSH1 0x1 PUSH1 0x2 DUP9 MUL ADD DUP9 SSTORE POP POP POP JUMPDEST POP POP POP POP POP POP JUMP INVALID LOG2 PUSH5 0x6970667358 0x22 SLT KECCAK256 SWAP12 0xAB 0x23 0xB9 0xC7 0xEC SLT 0xC2 0x2A CALLDATALOAD 0xC1 0xC PUSH31 0xF19E8EB7069222E38719C9E34848E70023222E64736F6C634300081A003300 "
				},
				"gasEstimates": {
					"creation": {
						"codeDepositCost": "923400",
						"executionCost": "25225",
						"totalCost": "948625"
					},
					"external": {
						"addFamilyFund()": "141",
						"addFamilyMember(address,string)": "infinite",
						"distributeFamilyFunds()": "infinite",
						"removeFamilyMember(address)": "infinite",
						"viewFamilyFund()": "378",
						"viewFamilyMembers()": "infinite"
					},
					"internal": {
						"transfer(address payable,uint256)": "infinite"
					}
				},
				"methodIdentifiers": {
					"addFamilyFund()": "541376c9",
					"addFamilyMember(address,string)": "ca4622fa",
					"distributeFamilyFunds()": "1158609e",
					"removeFamilyMember(address)": "0342da8a",
					"viewFamilyFund()": "7a0397fc",
					"viewFamilyMembers()": "8ed4d62f"
				}
			},
			"storageLayout": {
				"storage": [
					{
						"astId": 3,
						"contract": "BCLastone.sol:FamilyTips",
						"label": "owner",
						"offset": 0,
						"slot": "0",
						"type": "t_address"
					},
					{
						"astId": 7,
						"contract": "BCLastone.sol:FamilyTips",
						"label": "familyMembers",
						"offset": 0,
						"slot": "1",
						"type": "t_array(t_struct(FamilyMember)37_storage)dyn_storage"
					}
				],
				"types": {
					"t_address": {
						"encoding": "inplace",
						"label": "address",
						"numberOfBytes": "20"
					},
					"t_address_payable": {
						"encoding": "inplace",
						"label": "address payable",
						"numberOfBytes": "20"
					},
					"t_array(t_struct(FamilyMember)37_storage)dyn_storage": {
						"base": "t_struct(FamilyMember)37_storage",
						"encoding": "dynamic_array",
						"label": "struct FamilyTips.FamilyMember[]",
						"numberOfBytes": "32"
					},
					"t_string_storage": {
						"encoding": "bytes",
						"label": "string",
						"numberOfBytes": "32"
					},
					"t_struct(FamilyMember)37_storage": {
						"encoding": "inplace",
						"label": "struct FamilyTips.FamilyMember",
						"members": [
							{
								"astId": 34,
								"contract": "BCLastone.sol:FamilyTips",
								"label": "walletAddress",
								"offset": 0,
								"slot": "0",
								"type": "t_address_payable"
							},
							{
								"astId": 36,
								"contract": "BCLastone.sol:FamilyTips",
								"label": "name",
								"offset": 0,
								"slot": "1",
								"type": "t_string_storage"
							}
						],
						"numberOfBytes": "64"
					}
				}
			},
			"userdoc": {
				"kind": "user",
				"methods": {},
				"version": 1
			}
		}
	}
}